:100000006F002051000000004A0100004E01000076
:1000100000000000000000000000000000000000E0
:1000200000000000000000000000000000000000D0
:10003000E004000000000000E204000000000000F6
:10004000E4040000E6040000E8040000EA04000004
:10005000EC040000EE040000F0040000F2040000D4
:10006000F4040000F6040000F8040000FA040000A4
:10007000FC040000FE040000F8010000020500007E
:100080000405000006050000080500000A05000040
:100090000C0500000E050000100500000000000027
:1000A000511126C022C206C4828282441244A24058
:1000B000310182802A86014593F6150091C232955E
:1000C00085810606F5F9828000000000634E050276
:1000D00063C305042E86AA857D5515C285466378BF
:1000E000B6006356C00006068606E36CB6FE014500
:1000F00063E4C500918D558D85820582F5FA828075
:100100008682C93F2E8582823305A04063D70500D1
:10011000B305B040C1B7B305B0408682653F330533
:10012000A0408282868263C70500634905005D376F
:100130002E858282B305B040E35B05FE3305A04007
:10014000513F3305B040828200007300203001A08F
:10015000EFF21FF5130181FD2AC08545454502C612
:1001600002C802CA02CC02CE02D002D202C202C42B
:10017000EF003002854537052000EF00700311477E
:10018000F1440D446C0037150140788626CA22C818
:10019000192109476C0037150140788626CA22C804
:1001A000DD2E8247375400402C083ECCB707004074
:1001B0003ECEB70700043ED01305044091672312DA
:1001C000F1026D2105469305002013050440F12B33
:1001D0009307E0117C8285475C83480085473EC4D5
:1001E000B525130504408545B12B8545130504400D
:1001F00045231301810255BD611122C2B7050300D9
:100200003754004085051305044026C0F92385476F
:100210006317F51CB7050002850513050440112579
:1002200009CD01469305000D13050440712B0546C9
:1002300093050040130504408D2BB70407009384F9
:10024000240837540040A68513050440792375D946
:10025000B70500069385050813050440D923854793
:10026000AA84631EF500B70500029105130504403A
:100270004D2B63169500854513050440ED29B70500
:100280000006375400409385050813050440512BA0
:1002900085476318F504B70500029105130504406E
:1002A000492321E1130504408145092B130504402E
:1002B00001469305004037040700C529130444088C
:1002C000B7540040A28513850440012B75D91385CE
:1002D000044085454D21371500001305051EEF002C
:1002E000706BB70500063754004093850508130569
:1002F0000440052B29E9B7050002910513050440C8
:100300000D2385476311F5041305044081457D21C4
:10031000130504400146930500403704070071218E
:1003200013044408B7540040A28513850440752186
:1003300075D91385044085453D29371500001305FF
:10034000451FEF003065B70500063755004093851F
:10035000050413050540F12185476318F50037159D
:10036000000013058520EF00F062375500408545F9
:100370001305054037040300D5260504B754004093
:10038000A28513850440912975D905469305000D72
:10039000138504403704030005290904375500403C
:1003A000A28513050540152975D9B704001093845B
:1003B000040437540040A68513050440152975D957
:1003C00013050440F52EAA848545130504406526CF
:1003D00037150000A68513050521EF00905912443A
:1003E0008244210173002030EFF29FCB094591290F
:1003F000C92D7165130505209127B707002083A536
:1004000007003715000013050522EF0090566165BF
:100410001305056A353BB7140000375400409307B5
:1004200004403E85B7050200E126B7570040938798
:10043000074065F98545130504400D2613850423FF
:10044000EF0050551305803E5D2DC1BFB717024028
:100450009843B706FFFC1367170098C3D843758FFE
:10046000D8C39843B706F7FEFD16758F98C3984317
:10047000B706FCFFFD16758F98C3D44341777D17EF
:10048000F98ED4C3B7069F0094C7B72602409042A6
:10049000719A90C290421366160090C2D443D4C39E
:1004A000D443758FD8C3D843B7060001D8C3984347
:1004B000558F98C3984393166700E3DD06FED84333
:1004C000B7160240719BD8C3D84313672700D8C31F
:1004D0002147DC42B18BE39EE7FE828001A001A0B0
:1004E00001A001A001A001A001A001A001A001A004
:1004F00001A001A001A001A001A001A001A001A0F4
:1005000001A001A001A001A001A001A001A001A0E3
:1005100001A09701002093816131138181FD17159E
:1005200000001305E5D2970500209385A5AD1706B9
:1005300000201306A6AF63FAC5008322050023A09E
:10054000550011059105E3EAC5FE170500201305C6
:10055000E5AD938581806377B50023200500110503
:10056000E36DB5FE93020008739002308D427390E4
:100570004280970200009382E2A893E232007390D7
:100580005230EFF0BFEC97020000938222E67390A6
:100590001234730020309C45611122C226C013F72B
:1005A000070113F3F70001C7D8413363E300922139
:1005B0001377F60F29C78323050001471304800230
:1005C000930480048546B395E600B376B600639243
:1005D000D50293122700BD46B396560093C6F6FF88
:1005E000B3F37600B3125300B3E372006397870648
:1005F0004CC90507A146E317D7FC23207500130754
:10060000F00F6378C70483234500A14613048002DA
:10061000930480040547B312D700337756006394E0
:10062000E202139726000117BD45B395E50093C577
:10063000F5FFB3F375003317E300B36377006392FC
:100640008702232A550085064147E395E6FC2322CD
:1006500075001244824421018280E39C97F80CC902
:1006600049BFE39297FE23285500F1BFEFF25FA345
:10067000111146212A8428002EC0B52CC246C2047E
:10068000C18093F404FCB7450F009385052436859B
:10069000C20436C2C1803D3C458D420541814AA01D
:1006A0001E209246C207C183F99BC207C1831EA0C8
:1006B00082479043E1679387076A9315160063E4C6
:1006C000C7043685013CAA87420541819146637380
:1006D000D50091471395070141814AAC1E2002477E
:1006E00093E717001EA01E2056233227C207C1839E
:1006F000D18E93F757BFD58F1EA016275E27D58FB3
:100700001EA471015DB28247EA23B167FD17631F22
:10071000F500B29536857D3A420541819317450132
:1007200099E313651500A1675D8D45BFB387C500CB
:100730008E07B385C7003685713A420541819167BE
:100740005D8DE9BF1E2189C593E717001EA1828038
:10075000C207C183F99BC207C183CDBF1E2189C5D2
:1007600093E707101EA18280C207C18393F7F7EFBA
:10077000C207C183C5BF1E2189C593E707201EA1FB
:100780008280C207C18393F7F7DFC207C183C5BF69
:100790001E2189C593E707401EA18280C207C1833D
:1007A00093F7F7BFC207C183C5BF5E2101C6DD8DC8
:1007B0004EA1828093C5F5FFFD8DDDBF0EA982801D
:1007C0000A291375F50F828093F7E50F19C293E795
:1007D0001500C207C1831EA982805E290A2D420529
:1007E0005D8D6D8D220521810D8D13351500828063
:1007F000611102C002C293D7C5012AC23EC082471E
:10080000A205A18199CB9247D1073EC29247884366
:1008100021016D8D3335A00082809247C181E107AF
:10082000EDB75E215A29C2076D8FC18309CB13D55D
:1008300005017D8D137505703335A000828001455B
:100840008280B707002023A4A7028280B707002078
:10085000938787029443182181E63C21920721A8BF
:1008600094430546639FC6023C21103192076314EE
:10087000D60093E707F8B7E600E093F7F70FBA96CC
:100880002380F6408546935757003397E60054413E
:10089000A5C2938707048A07B7E600E0B69798C316
:1008A00082808C4389466391D50214313C21636573
:1008B000D6008A06B6975DB79386E6038A06B69792
:1008C00093F7F70F920775B790438D46631CD600D8
:1008D00014313C216364D6008606E9BF9386C607BF
:1008E0008606F1BF94439147E39EF6F81C31BDB7ED
:1008F000938707064DB7EFF2AFFA371702405C4314
:1009000091462A84B18B6385D700A146638DD706B3
:10091000B7376E01938707601CC0B7160240DC42F0
:10092000918313F7F700B707002093878701BA97E1
:100930008C23DC42184093F5F50F93F707083355E5
:10094000B70081E73A85EFF0EFF848C008C448C423
:10095000B7170240DC43AD83FD8B13D737008A07FE
:10096000F18BD98F93F637010D476373D700D117F9
:100970003707002013074700BA978C23EFF08FF555
:1009800008C86FF08FF25C43B777DC02938707C02B
:1009900061B799C5371702401C4F5D8D08CF828023
:1009A000B7170240984F1345F5FF798D88CF8280A5
:1009B00099C5371702405C4F5D8D48CF8280B717CD
:1009C0000240D84F1345F5FF798DC8CF8280EFF2F2
:1009D0002FED1629F577FD17F58FF621DA25211170
:1009E000D58F1EA95625FD779387379FF58FD62182
:1009F0002A842EC0D58F9625D58FB625D58F5EA596
:100A00005E29C207C18393F7F7CF5D8F5AA94800CB
:100A1000DD35B74701409387078082456312F406AE
:100A2000C2475A24139517003E9542070E05418789
:100A30003E958C41635807048605EFF0AFE99305B6
:100A400040062AC0EFF00FE9824793144500930552
:100A500040063E85EFF0CFEA5E24C207C18763D52A
:100A600007020E059305400613052503EFF08FE6F8
:100A70001D89C98CC204C18006A461016FF0EFE238
:100A8000B24745B78A0555BF1205930540061305C1
:100A90002503EFF02FE43D89E9BF91C55E25096785
:100AA000D98F5EA582805A25F977FD17F98FD5BFBA
:100AB00093F5F51F4EA182800A216D8D3335A0007C
:100AC0008280EFF2EFDDB707002003A50700B7151E
:100AD0007A0093850520EFF0EFDF1375F50FB70768
:100AE00000202387A70293175500898F8A073E9518
:100AF0000E05B70700202396A7026FF00FDBEFF279
:100B00002FDA37F400E05C40AA85F99B5CC0B70798
:100B1000002003D5C702EFF0EFD908C82324040052
:100B20001C4093E717001CC0B7F700E0D843058BC3
:100B300075DF9843799B98C36FF02FD7EFF24FD6AC
:100B40002A8411651111854513050502993593070E
:100B500000027C80371501408D473EC28A85E147FF
:100B6000130505403EC4053C22C637440140B70783
:100B700008006C00130504803ECA02C8231C010053
:100B8000B935854513050480093F71016FF0EFD138
:100B9000EFF20FD17111AE840144635DC402B74717
:100BA0000140138707803A859305000432C0293736
:100BB000B747014013870780024675D53387840005
:100BC00083050700138507800504C205C181CD3563
:100BD0000246E1B7328511016FF02FCD411106C6F3
:100BE0002EC00DCD1841AA8705C358417D5511CBA4
:100BF0008546631BD70098472300070023A2070000
:100C00000545B240410182809847824614A3984727
:100C1000050798C7D8437D17D8C3DDB705468A8531
:100C2000853FF9BF011122CC2EC206CE26CA2A84E6
:100C3000814793050002634506029245BE95838570
:100C400005008DE563D8C70263D4E702198E13054A
:100C5000000293F526002AC089C501E79305000329
:100C60002EC0858A814495EAB2840DA08507F1B72C
:100C70001D8EF1BF0146E1BF824522853AC832C6CA
:100C80003EC4A93FA24732464247FD14E34690FEC8
:100C9000B284635306008144058E63C7E702A687CA
:100CA00092463387974036978305070095EDB284C7
:100CB00063449004635306000146F2406244D24408
:100CC0003305F600056182801D8FBA879305000306
:100CD000228532C83EC63AC41137B247224742463F
:100CE000FD17EDF7BA9465BF228532C63EC4FD35C7
:100CF000A247324685076DB78245228532C43EC27F
:100D0000F13DFD142246924765B7397106DE22DCBB
:100D100026DA3EC232833A8689ED92469307000373
:100D200001476C08FC86FD3DF2506254D2542161AB
:100D30008280AA843684AE8791CA2947014463170A
:100D4000E30063D50500B307B04005448646A30918
:100D5000010213073103938666FC36C49A853E85EB
:100D600032CA3AC81AC63EC0EFF08FB9A5468247CC
:100D700032434247524663D4A600A2463695130535
:100D800005039306F7FFA30FA7FE9A853E8532CC95
:100D90003ACA1AC83EC636C0EFF0CFB3B247424394
:100DA0005247624663F9670401CC29CA9247898B8E
:100DB000B1C79305D002268532C40D3522467D1673
:100DC0009247918B95C306479307100632C493054B
:100DD00000032685631EF7021135930580072685DB
:100DE000F53B224609047916164792468245268528
:100DF000153D229515BFAA8702478DB782469307F6
:100E0000D0020144A38FF6FE9307E7FF3EC04DBF1B
:100E1000F13393058005E1B7014582800145828069
:100E2000130181FD22D026CE06D22AC4AE8232849E
:100E300002C681448385020089EDA24781C78145AE
:100E40003E85693B925002542685F244130181028B
:100E50008280930750026388F500224516C88504F6
:100E6000B53BC24239A88387120013871200639CE6
:100E7000B7002245930550023AC88D334247850496
:100E8000BA82850245BFD5DB9306B0026389D704D9
:100E900063C8F600930630026386D704814705A035
:100EA0009306D002638AD70093060003E398D7FE27
:100EB00013872200894721A01387220085478306D4
:100EC00007001306B0026383C6046341D60213060B
:100ED0003002638BC602BA820145A54681A0138702
:100EE00022006DBF138722009147D1BF1306D002A5
:100EF0006389C60013060003E39FC6FC93E727003F
:100F000031A005078547C1BF93E747000507E1B753
:100F100013162500329506053A95850203860200D0
:100F2000130706FD9375F70FE3F4B6FE1307E0020F
:100F30009946631EE60085028146A54503860200A8
:100F4000130606FD1377F60F63F5E50236C6038731
:100F500002001306A006630DC70A6343E6021306E8
:100F6000C0046307C70A13068006630CC7088145DF
:100F70002DA813972600BA968606B29685027DBFE5
:100F8000130640076306C7081306A0076302C708D5
:100F90001306C0068145631AC700038612008D45FB
:100FA0006314E600850291458502038602009303DF
:100FB00000061307100663C4C3001307100493034D
:100FC000700663C4C30693035006635376189303F5
:100FD000700463C1C30493055004635BB616130722
:100FE0003004E310E6EA18409303440016CA230CC9
:100FF000E1001EC8A30C01000147BE862A862C080A
:1010000049A8038612008145E311E6FA890271BFFF
:101010008502B1BF93063006E307D6FC63CEC60651
:10102000930680056303D602A9BD930630076304C7
:10103000D60463CBC6029306F0066302D60E93066F
:10104000000793E74700E31ED6E29146639FD50A67
:10105000930384000C40504016CA3AC23EC01EC8DA
:10106000AA870147C146B9A0930650076308D60670
:101070009306800745BF1840B7160000930344004D
:101080009385462411C3BA85324716CA1EC8BE8648
:101090002A862245413E0DA091466394D5029303D2
:1010A00084000C40504016CA3AC23EC01EC8AA87EF
:1010B0000547A94622458D33C243AA941E84D242D5
:1010C000C9B3B2460C4016C836C23AC011042A87CA
:1010D0008546294622451539AA9461B39146639DF8
:1010E000D500930384000C40504016CA3AC23EC05B
:1010F0001EC8AA87014775BFB2460C4016C836C243
:101100003AC011042A878146E9B7B24616C80C4096
:10111000414636C23AC011042A87814665BF9146CE
:10112000639ED500930384000C40504016CA3AC217
:101130003EC01EC8AA870147A146ADBFB2460C40BB
:1011400016C836C23AC011042A878146214659B7CB
:101150000C401306840040403AC22A87224532C818
:101160003EC02286B687A94616CA4D39AA94424483
:10117000B9B71301C1FD2EC832CAAA8510080145AE
:1011800006C636CC3ACE3ED032C05939B2401301F1
:1011900041028280411122C426C206C61C21AA84B3
:1011A0000144DC8183073100050499EFA9479305C9
:1011B000310005460145DC81EFF09F9D2285B2405C
:1011C0002244924441018280054693053100014545
:1011D000EFF01F9CB38784009C23DC81E1B7000003
:1011E0004932432053656E6444617461203121218A
:1011F000210D00004932432053656E6444617461DF
:1012000020322121210D00007265200D0000000018
:1012100064617461202D202564200D0A0000000007
:1012200053797374656D436C6B3A25640D0A000045
:101230004D61737465725472616E736D6974200DC3
:0C12400000000000286E756C6C29000096
:10124C00006CDC020204060804080C1008101820BC
:10125C00102030402040608001020304050607087E
:08126C00010203040506070856
:00000001FF
