:100000006F00C03E00000000DA010000DE010000C9
:1000100000000000000000000000000000000000E0
:1000200000000000000000000000000000000000D0
:10003000CC07000000000000BC030000000000002E
:10004000BE030000C0030000C2030000C4030000A0
:10005000C6030000C8030000CA030000CC03000070
:10006000CE030000D0030000D2030000D403000040
:10007000D6030000D8030000DA030000DC03000010
:10008000DE030000E0030000E2030000E4030000E0
:10009000E6030000E8030000EA030000000000009F
:1000A000511126C022C206C4828282441244A24058
:1000B00031018280634E050263C305042E86AA8542
:1000C0007D5515C285466378B6006356C0000606A6
:1000D0008606E36CB6FE014563E4C500918D558D3F
:1000E00085820582F5FA82808682C93F2E858282CA
:1000F0003305A04063D70500B305B040C1B7B305D1
:10010000B0408682653F3305A0408282868263C705
:100110000500634905005D372E858282B305B04036
:10012000E35B05FE3305A040513F3305B0408282BA
:1001300000003D432A876373C3029377F700BDEF46
:10014000ADE5937606FF3D8ABA960CC34CC30CC747
:100150004CC74107E36BD7FE11E28280B306C34070
:100160008A069702000096966780A6002307B700CC
:10017000A306B7002306B700A305B7002305B70001
:10018000A304B7002304B700A303B7002303B700F9
:10019000A302B7002302B700A301B7002301B700F1
:1001A000A300B7002300B700828093F5F50F939664
:1001B0008500D58D93960501D58D61B7939627005F
:1001C0009702000096968682E78086FA9680C1178D
:1001D0001D8F3E96E374C3F8A5B77300203001A0CD
:1001E00019E20545828018419C417D1642064182F4
:1001F0006315F70011059105E5B701458280EFF21F
:100200003FEA130141FD1306C00281450A851537F7
:1002100085450545B9290A85412CB70700209387F4
:1002200007003EC0B70700209387870A3EC29307A6
:100230000008370402403EC63ECA8D67130700041B
:100240008A853ED21305040391673AC83ED402C49E
:1002500002CC02CE02D0292C13050020712C85453A
:10026000130504038D2C1301C10281B5EFF25FE386
:10027000711109458D2605237165130505207D2320
:10028000B707002083A50708371500001305C5EC44
:10029000EF00303DAD3713050020812C6DDD3704B4
:1002A0000020B7040020130600029305840A13857A
:1002B00004003D372380A18835E137150000130580
:1002C000C5EDEF00303C37150000130585F0EF0059
:1002D000703B93870400B71400008C43138544F1EE
:1002E0003EC0EF0010388247370700201307070889
:1002F0009107E394E7FE37150000130505F2EF00C0
:1003000070381304840A0C40138544F11104EF0083
:10031000503593870188E39887FE01A037150000C8
:10032000130505EF79BFB71702409843B706FFFCE6
:100330001367170098C3D843758FD8C39843B7067F
:10034000F7FEFD16758F98C39843B706FCFFFD16A0
:10035000758F98C3D44341777D17F98ED4C3B70600
:100360009F0094C7B72602409042719A90C2904273
:100370001366160090C2D443D4C3D443758FD8C338
:10038000D843B7060001D8C39843558F98C3984304
:1003900093166700E3DD06FED843B7160240719B53
:1003A000D8C3D84313672700D8C32147DC42B18B99
:1003B000E39EE7FE828001A001A001A001A001A0B0
:1003C00001A001A001A001A001A001A001A001A025
:1003D00001A001A001A001A001A001A001A001A015
:1003E00001A001A001A001A001A001A0970100208F
:1003F0009381C14B138181F5171500001305C5B317
:1004000097050020938505C017060020130606CA2D
:1004100063FAC5008322050023A05500110591054C
:10042000E3EAC5FE17050020130545C89385C1887A
:100430006377B500232005001105E36DB5FE930237
:100440000008739002308D42739042809702000042
:10045000938242BB93E2320073905230EFF0BFECD4
:10046000970200009382C2E0739012347300203030
:100470001841E177BD0794517D8F9C45D58F9449F4
:10048000D58FD449D58F944DD58FD44DD58FD45198
:10049000D58F9455D58FD98F1CC1DC455CC19C414B
:1004A0001CC5DC415CC58280232005002322050099
:1004B000232405002326050023280500232A050000
:1004C000232C0500232E05002320050223220502EC
:1004D0002324050282801C4189C593E717001CC1B3
:1004E000828041677917F98FDDBFB70702409C43CF
:1004F0007D8D3335A0008280B7070240C8C382805B
:100500009C45611122C226C013F7070113F3F700BF
:1005100001C7D8413363E30092211377F60F29C74F
:100520008323050001471304800293048004854659
:10053000B395E600B376B6006392D5029312270016
:10054000BD46B396560093C6F6FFB3F37600B312DA
:100550005300B3E37200639787064CC90507A146B1
:10056000E317D7FC232075001307F00F6378C70447
:1005700083234500A14613048002930480040547A9
:10058000B312D700337756006394E2021397260024
:100590000117BD45B395E50093C5F5FFB3F37500AD
:1005A0003317E300B363770063928702232A550071
:1005B00085064147E395E6FC2322750012448244F8
:1005C00021018280E39C97F80CC949BFE39297FE12
:1005D00023285500F1BF23A2A1888280EFF25FACEF
:1005E000371702405C4391462A84B18B6385D7005C
:1005F000A146638AD706B7376E01938707601CC090
:10060000B7160240DC42918313F7F700B7070020CA
:1006100093878709BA978C23DC42184093F5F50F2E
:1006200093F707083355B70099E33A85413C48C032
:1006300008C448C4B7170240DC43AD83FD8B13D711
:1006400037008A07F18BD98F93F637010D47637313
:10065000D700D1173707002013074708BA978C2314
:10066000B13C08C899B45C43B777DC02938707C0F4
:1006700079B799C5371702405C4B5D8D48CB8280B6
:10068000B7170240D84B1345F5FF798DC8CB828050
:1006900099C5371702401C4F5D8D08CF8280B71770
:1006A0000240984F1345F5FF798D88CF8280EFF295
:1006B0003F9F1629F577FD17F58FF621DA252111D1
:1006C000D58F1EA95625FD779387379FF58FD621A5
:1006D0002A842EC0D58F9625D58FB625D58F5EA5B9
:1006E0005E29C207C18393F7F7CF5D8F5AA94800EF
:1006F000F535B7470140938707808245631DF404B1
:10070000C2475A24139517003E9542070E054187AC
:100710003E958C416353070486054D329305400690
:100720002AC0693A824793144500930540063E85E6
:10073000653A5E24C207C18763D307020E0593059D
:100740004006130525039D3A1D89C98CC204C1804A
:1007500006A4610199BAB2476DB78A057DBF12053B
:100760009305400613052503913A3D89F9BF91C5CC
:100770005E250967D98F5EA582805A25F977FD1716
:10078000F98FD5BF93F5F51F4EA182800A216D8D9B
:100790003335A0008280EFF2BF9037F400E02320D1
:1007A00004000567B7E700E023A0E710B7070020C3
:1007B00003A507089305803E11327D1508C8232440
:1007C000040023A401889D471CC0C5B079713EC0B8
:1007D000B707002022CE2ACA37F400E003A5070895
:1007E00026CC04482EC89305803E3AC206D616D4BD
:1007F0001AD21ED032C636C4EFF05F8C269508C8D8
:10080000232204009387818898437244B2500507DD
:1008100098C3A25212538253E2445245C245324613
:10082000A24612478247456173002030EFF25F878E
:100830002A8411651111854513050502913D930721
:1008400000027C80371501408D473EC28A85E14712
:10085000130505403EC46D3122C637440140B70739
:1008600008006C00130504803ECA02C8231C010066
:100870003D3D854513050480DD3D71016FF0FF822C
:10088000EFF21F827111AE840144635DC402B74769
:100890000140138707803A859305000432C0FD3577
:1008A000B747014013870780024675D53387840018
:1008B00083050700138507800504C205C181D9356A
:1008C0000246E1B7328511016FF02FFE411106C6D5
:1008D0002EC00DCD1841AA8705C358417D5511CBB7
:1008E0008546631BD70098472300070023A2070013
:1008F0000545B240410182809847824614A398473B
:10090000050798C7D8437D17D8C3DDB705468A8544
:10091000853FF9BF011122CC2EC206CE26CA2A84F9
:10092000814793050002634506029245BE95838583
:1009300005008DE563D8C70263D4E702198E13055D
:10094000000293F526002AC089C501E7930500033C
:100950002EC0858A814495EAB2840DA08507F1B73F
:100960001D8EF1BF0146E1BF824522853AC832C6DD
:100970003EC4A93FA24732464247FD14E34690FEDB
:10098000B284635306008144058E63C7E702A687DD
:1009900092463387974036978305070095EDB284DA
:1009A00063449004635306000146F2406244D2441B
:1009B0003305F600056182801D8FBA879305000319
:1009C000228532C83EC63AC41137B2472247424652
:1009D000FD17EDF7BA9465BF228532C63EC4FD35DA
:1009E000A247324685076DB78245228532C43EC292
:1009F000F13DFD142246924765B7397106DE22DCCF
:100A000026DA3EC232833A8689ED92469307000386
:100A100001476C08FC86FD3DF2506254D2542161BE
:100A20008280AA843684AE8791CA2947014463171D
:100A3000E30063D50500B307B04005448646A3092B
:100A4000010213073103938666FC36C49A853E85FE
:100A500032CA3AC81AC63EC0EFF00FE9A54682472F
:100A600032434247524663D4A600A2463695130548
:100A700005039306F7FFA30FA7FE9A853E8532CCA8
:100A80003ACA1AC83EC636C0EFF04FE3B2474243F7
:100A90005247624663F9670401CC29CA9247898BA1
:100AA000B1C79305D002268532C40D3522467D1686
:100AB0009247918B95C306479307100632C493055E
:100AC00000032685631EF7021135930580072685EE
:100AD000F53B22460904791616479246824526853B
:100AE000153D229515BFAA8702478DB78246930709
:100AF000D0020144A38FF6FE9307E7FF3EC04DBF2F
:100B0000F13393058005E1B701458280014582807C
:100B1000130181FD22D026CE06D22AC4AE823284B1
:100B200002C681448385020089EDA24781C78145C1
:100B30003E85693B925002542685F244130181029E
:100B40008280930750026388F500224516C8850409
:100B5000B53BC24239A88387120013871200639CF9
:100B6000B7002245930550023AC88D3342478504A9
:100B7000BA82850245BFD5DB9306B0026389D704EC
:100B800063C8F600930630026386D704814705A048
:100B90009306D002638AD70093060003E398D7FE3A
:100BA00013872200894721A01387220085478306E7
:100BB00007001306B0026383C6046341D60213061E
:100BC0003002638BC602BA820145A54681A0138715
:100BD00022006DBF138722009147D1BF1306D002B8
:100BE0006389C60013060003E39FC6FC93E7270052
:100BF00031A005078547C1BF93E747000507E1B767
:100C000013162500329506053A95850203860200E3
:100C1000130706FD9375F70FE3F4B6FE1307E00222
:100C20009946631EE60085028146A54503860200BB
:100C3000130606FD1377F60F63F5E50236C6038744
:100C400002001306A006630DC70A6343E6021306FB
:100C5000C0046307C70A13068006630CC7088145F2
:100C60002DA813972600BA968606B29685027DBFF8
:100C7000130640076306C7081306A0076302C708E8
:100C80001306C0068145631AC700038612008D450E
:100C90006314E600850291458502038602009303F2
:100CA00000061307100663C4C30013071004930360
:100CB000700663C4C3069303500663537618930308
:100CC000700463C1C30493055004635BB616130735
:100CD0003004E310E6EA18409303440016CA230CDC
:100CE000E1001EC8A30C01000147BE862A862C081D
:100CF00049A8038612008145E311E6FA890271BF13
:100D00008502B1BF93063006E307D6FC63CEC60664
:100D1000930680056303D602A9BD930630076304DA
:100D2000D60463CBC6029306F0066302D60E930682
:100D3000000793E74700E31ED6E29146639FD50A7A
:100D4000930384000C40504016CA3AC23EC01EC8ED
:100D5000AA870147C146B9A0930650076308D60683
:100D60009306800745BF1840B71600009303440060
:100D70009385C6F211C3BA85324716CA1EC8BE860D
:100D80002A862245413E0DA091466394D5029303E5
:100D900084000C40504016CA3AC23EC01EC8AA8702
:100DA0000547A94622458D33C243AA941E84D242E8
:100DB000C9B3B2460C4016C836C23AC011042A87DD
:100DC0008546294622451539AA9461B39146639D0B
:100DD000D500930384000C40504016CA3AC23EC06E
:100DE0001EC8AA87014775BFB2460C4016C836C256
:100DF0003AC011042A878146E9B7B24616C80C40AA
:100E0000414636C23AC011042A87814665BF9146E1
:100E1000639ED500930384000C40504016CA3AC22A
:100E20003EC01EC8AA870147A146ADBFB2460C40CE
:100E300016C836C23AC011042A878146214659B7DE
:100E40000C401306840040403AC22A87224532C82B
:100E50003EC02286B687A94616CA4D39AA94424496
:100E6000B9B71301C1FD2EC832CAAA8510080145C1
:100E700006C636CC3ACE3ED032C05939B240130104
:100E800041028280411122C426C206C61C21AA84C6
:100E90000144DC8183073100050491EFA9479305E4
:100EA000310005460145DC81E13A2285B240224409
:100EB0009244410182800546930531000145C932C3
:100EC000B38784009C23DC81F1B7000053797374ED
:100ED000656D436C6B3A25640D0A0000444D41205A
:100EE0005472616E73666572204661696C0D000014
:100EF000444D41205472616E736665722053756370
:100F0000636573730D0000005352435F4255463AC8
:100F10000D00000030782530386C780D0A00000094
:100F20004453545F4255463A0D000000286E756CDC
:040F30006C29000028
:100F340004030201080706050C0B0A09100F0E0D25
:100F440014131211181716151C1B1A19201F1E1D15
:100F540024232221282726252C2B2A29302F2E2D05
:100F640034333231383736353C3B3A39403F3E3DF5
:100F740044434241484746454C4B4A49504F4E4DE5
:100F840054535251585756555C5B5A59605F5E5DD5
:100F940064636261686766656C6B6A69706F6E6DC5
:100FA40074737271787776757C7B7A79807F7E7DB5
:100FB400006CDC020204060804080C100810182057
:100FC4001020304020406080010203040506070819
:080FD4000102030405060708F1
:00000001FF
