:100000006F00402F000000004A0100004E01000078
:1000100000000000000000000000000000000000E0
:1000200000000000000000000000000000000000D0
:10003000C202000000000000C40200000000000036
:10004000C6020000C6010000CA020000CC02000087
:10005000CE020000D0020000D2020000D402000054
:10006000D6020000D8020000DA020000DC02000024
:10007000DE020000E0020000E2020000E4020000F4
:10008000E6020000E8020000EA020000EC020000C4
:10009000EE020000F0020000F2020000000000008A
:1000A000511126C022C206C4828282441244A24058
:1000B000310182802A86014593F6150091C232955E
:1000C00085810606F5F9828000000000634E050276
:1000D00063C305042E86AA857D5515C285466378BF
:1000E000B6006356C00006068606E36CB6FE014500
:1000F00063E4C500918D558D85820582F5FA828075
:100100008682C93F2E8582823305A04063D70500D1
:10011000B305B040C1B7B305B0408682653F330533
:10012000A0408282868263C70500634905005D376F
:100130002E858282B305B040E35B05FE3305A04007
:10014000513F3305B040828200007300203001A08F
:10015000EFF21FF51301C1FD85453705001002C4FC
:1001600002C602C802CA02CC02CE02D002C002C23B
:10017000192385454545CD21C1472C007C84414448
:100180008D47371501403EC622C8412413050002A1
:100190000D2105452921130500109D24930700100A
:1001A00022CE480805443ECA22D002CCF1220545A1
:1001B0002D2EC5470A857C8022C2230101001D2EF9
:1001C00013014102DDB513050010212C19CD0546A0
:1001D000C14537150140292637150000130505E9EB
:1001E000EF00904613050010212C73002030EFF231
:1001F0003FEB6923716513050520DD2BB707002050
:1002000083A5070037150000130505EAEF00B0418C
:1002100081370546C14537150140D9241305803E75
:10022000512B0146C145371501405D2C01A0B71780
:1002300002409843B706FFFC1367170098C3D843E2
:10024000758FD8C39843B706F7FEFD16758F98C310
:100250009843B706FCFFFD16758F98C3D4434177CA
:100260007D17F98ED4C3B7069F0094C7B726024006
:100270009042719A90C290421366160090C2D44385
:10028000D4C3D443758FD8C3D843B7060001D8C3AD
:100290009843558F98C3984393166700E3DD06FE95
:1002A000D843B7160240719BD8C3D84313672700C1
:1002B000D8C32147DC42B18BE39EE7FE828001A0D8
:1002C00001A001A001A001A001A001A001A001A026
:1002D00001A001A001A001A001A001A001A001A016
:1002E00001A001A001A001A001A001A001A001A006
:1002F00001A001A09701002093814153138181FD4A
:1003000017150000130585BB97050020938585CF41
:1003100017060020130686D163FAC5008322050064
:1003200023A0550011059105E3EAC5FE170500203D
:100330001305C5CF938581806377B5002320050021
:100340001105E36DB5FE93020008739002308D42F3
:1003500073904280970200009382C2CA93E23200F7
:1003600073905230EFF0BFEC97020000938262E886
:1003700073901234730020305841032305004C451C
:1003800037060140930706403E979346F3FFB1C5F9
:1003900083250640F58D2320B640D043F18ED4C38B
:1003A0001443B3E6660014C3184190479346F7FF21
:1003B000758E90C7D047F18ED4C7144541466399D6
:1003C000C6009447D98E94C7D447558FD8C782802A
:1003D000B6979443558F98C382801C43F58F1CC3F6
:1003E0008280B70701401387074083A70740584B17
:1003F000698F09C77D8D3335A000828001458280D9
:10040000B707014023AAA74082809C45611122C200
:1004100026C013F7070113F3F70001C7D841336370
:10042000E30092211377F60F29C7832305000147C4
:1004300013048002930480048546B395E600B376E6
:10044000B6006392D50293122700BD46B3965600BC
:1004500093C6F6FFB3F37600B3125300B3E3720012
:10046000639787064CC90507A146E317D7FC2320ED
:1004700075001307F00F6378C70483234500A14676
:1004800013048002930480040547B312D700337726
:1004900056006394E202139726000117BD45B395F9
:1004A000E50093C5F5FFB3F375003317E300B363BD
:1004B000770063928702232A550085064147E3951A
:1004C000E6FC232275001244824421018280E39CD1
:1004D00097F80CC949BFE39297FE23285500F1BF56
:1004E00019C20CC982804CC98280B707002023A49E
:1004F000A7028280B70700209387870294431821C0
:1005000081E63C21920721A894430546639FC602D9
:100510003C21103192076314D60093E707F8B7E641
:1005200000E093F7F70FBA962380F640854693577D
:1005300057003397E6005441A5C2938707048A0702
:10054000B7E600E0B69798C382808C4389466391F2
:10055000D50214313C216365D6008A06B6975DB793
:100560009386E6038A06B69793F7F70F920775B757
:1005700090438D46631CD60014313C216364D60041
:100580008606E9BF9386C6078606F1BF9443914766
:10059000E39EF6F81C31BDB7938707064DB7377752
:1005A00000401C4309C593E707011CC38280BD9B23
:1005B000EDBF377700401C4393F7F7F15D8D08C31B
:1005C0008280EFF2FFAD371702405C4391462A84E8
:1005D000B18B6385D700A146638AD706B7376E0112
:1005E000938707601CC0B7160240DC42918313F763
:1005F000F700B707002093878701BA978C23DC4266
:10060000184093F5F50F93F707083355B70099E3B2
:100610003A85C93448C008C448C4B7170240DC430F
:10062000AD83FD8B13D737008A07F18BD98F93F6F3
:1006300037010D476373D700D11737070020130721
:100640004700BA978C23793408C885B45C43B777E0
:10065000DC02938707C079B799C5371702401C4F52
:100660005D8D08CF8280B7170240984F1345F5FF84
:10067000798D88CF828099C5371702405C4F5D8D98
:1006800048CF8280B7170240D84F1345F5FF798DC8
:10069000C8CF8280EFF2DFA01629F577FD17F58F1E
:1006A000F621DA252111D58F1EA95625FD779387CE
:1006B000379FF58FD6212A842EC0D58F9625D58FCA
:1006C000B625D58F5EA55E29C207C18393F7F7CF04
:1006D0005D8F5AA94800F535B747014093870780D9
:1006E0008245631DF404C2475A24139517003E95B2
:1006F00042070E0541873E958C41635307048605EA
:10070000D13A930540062AC0F1328247931445003E
:10071000930540063E85ED325E24C207C18763D350
:1007200007020E05930540061305250365321D8952
:10073000C98CC204C18006A4610185BAB2476DB7F5
:100740008A057DBF1205930540061305250359321E
:100750003D89F9BF91C55E250967D98F5EA5828065
:100760005A25F977FD17F98FD5BF93F5F51F4EA1DF
:1007700082800A216D8D3335A0008280EFF25F9276
:10078000B707002003A50700B7157A009385052059
:1007900091321375F50FB70700202387A70293172F
:1007A0005500898F8A073E950E05B70700202396CE
:1007B000A702E5B8EFF2DF8E37F400E05C40AA85CF
:1007C000F99B5CC0B707002003D5C702E53008C815
:1007D000232404001C4093E717001CC0B7F700E077
:1007E000D843058B75DF9843799B98C36FF0FF8BD7
:1007F000EFF21F8B2A84116511118545130505023F
:10080000A13D930700027C80371501408D473EC211
:100810008A85E147130505403EC4C53E22C63744DC
:100820000140B70708006C00130504803ECA02C8E7
:10083000231C01008535854513050480213F710186
:100840006FF0BF86EFF2DF857111AE840144635D06
:10085000C402B7470140138707803A859305000417
:1008600032C0013FB747014013870780024675D564
:100870003387840083050700138507800504C205BC
:10088000C181E5350246E1B7328511016FF0FF8184
:10089000411106C62EC00DCD1841AA8705C3584187
:1008A0007D5511CB8546631BD70098472300070071
:1008B00023A207000545B240410182809847824645
:1008C00014A39847050798C7D8437D17D8C3DDB749
:1008D00005468A85853FF9BF011122CC2EC206CE7E
:1008E00026CA2A8481479305000263450602924581
:1008F000BE95838505008DE563D8C70263D4E70202
:10090000198E1305000293F526002AC089C501E758
:10091000930500032EC0858A814495EAB2840DA018
:100920008507F1B71D8EF1BF0146E1BF82452285E3
:100930003AC832C63EC4A93FA24732464247FD14D8
:10094000E34690FEB284635306008144058E63C77C
:10095000E702A687924633879740369783050700BC
:1009600095EDB28463449004635306000146F2405F
:100970006244D2443305F600056182801D8FBA8738
:1009800093050003228532C83EC63AC41137B247E8
:1009900022474246FD17EDF7BA9465BF228532C65D
:1009A0003EC4FD35A247324685076DB78245228594
:1009B00032C43EC2F13DFD142246924765B73971FB
:1009C00006DE22DC26DA3EC232833A8689ED924682
:1009D0009307000301476C08FC86FD3DF25062540A
:1009E000D25421618280AA843684AE8791CA294775
:1009F00001446317E30063D50500B307B040054425
:100A00008646A309010213073103938666FC36C4A8
:100A10009A853E8532CA3AC81AC63EC0EFF04FEEFC
:100A2000A546824732434247524663D4A600A246B7
:100A30003695130505039306F7FFA30FA7FE9A85C6
:100A40003E8532CC3ACA1AC83EC636C0EFF08FE8AF
:100A5000B24742435247624663F9670401CC29CA50
:100A60009247898BB1C79305D002268532C40D35D4
:100A700022467D169247918B95C306479307100631
:100A800032C4930500032685631EF70211359305D2
:100A900080072685F53B22460904791616479246BB
:100AA00082452685153D229515BFAA8702478DB739
:100AB00082469307D0020144A38FF6FE9307E7FF17
:100AC0003EC04DBFF13393058005E1B701458280FB
:100AD00001458280130181FD22D026CE06D22AC490
:100AE000AE82328402C681448385020089EDA2472A
:100AF00081C781453E85693B925002542685F24468
:100B0000130181028280930750026388F500224519
:100B100016C88504B53BC24239A8838712001387E3
:100B20001200639CB7002245930550023AC88D33EA
:100B300042478504BA82850245BFD5DB9306B002E1
:100B40006389D70463C8F600930630026386D7042E
:100B5000814705A09306D002638AD700930600035D
:100B6000E398D7FE13872200894721A0138722002C
:100B70008547830607001306B0026383C6046341FA
:100B8000D60213063002638BC602BA820145A5461F
:100B900081A0138722006DBF138722009147D1BF28
:100BA0001306D0026389C60013060003E39FC6FC48
:100BB00093E7270031A005078547C1BF93E74700AA
:100BC0000507E1B713162500329506053A9585020B
:100BD00003860200130706FD9375F70FE3F4B6FED4
:100BE0001307E0029946631EE60085028146A5458B
:100BF00003860200130606FD1377F60F63F5E50280
:100C000036C6038702001306A006630DC70A6343B6
:100C1000E6021306C0046307C70A13068006630CC6
:100C2000C70881452DA813972600BA968606B29666
:100C300085027DBF130640076306C7081306A00799
:100C40006302C7081306C0068145631AC7000386FE
:100C500012008D456314E6008502914585020386E6
:100C60000200930300061307100663C4C3001307B2
:100C700010049303700663C4C306930350066353C2
:100C800076189303700463C1C30493055004635B37
:100C9000B61613073004E310E6EA18409303440045
:100CA00016CA230CE1001EC8A30C01000147BE8632
:100CB0002A862C0849A8038612008145E311E6FA2A
:100CC000890271BF8502B1BF93063006E307D6FCE7
:100CD00063CEC606930680056303D602A9BD9306BC
:100CE00030076304D60463CBC6029306F0066302A2
:100CF000D60E9306000793E74700E31ED6E291461F
:100D0000639FD50A930384000C40504016CA3AC230
:100D10003EC01EC8AA870147C146B9A09306500726
:100D20006308D6069306800745BF1840B716000033
:100D300093034400938506EB11C3BA85324716CA64
:100D40001EC8BE862A862245413E0DA09146639468
:100D5000D502930384000C40504016CA3AC23EC0EC
:100D60001EC8AA870547A94622458D33C243AA94C7
:100D70001E84D242C9B3B2460C4016C836C23AC02D
:100D800011042A878546294622451539AA9461B35C
:100D90009146639DD500930384000C40504016CAD1
:100DA0003AC23EC01EC8AA87014775BFB2460C4072
:100DB00016C836C23AC011042A878146E9B7B2463E
:100DC00016C80C40414636C23AC011042A878146F3
:100DD00065BF9146639ED500930384000C4050404C
:100DE00016CA3AC23EC01EC8AA870147A146ADBF77
:100DF000B2460C4016C836C23AC011042A87814652
:100E0000214659B70C401306840040403AC22A8755
:100E1000224532C83EC02286B687A94616CA4D3939
:100E2000AA944244B9B71301C1FD2EC832CAAA859B
:100E30001008014506C636CC3ACE3ED032C05939EC
:100E4000B240130141028280411122C426C206C66B
:100E50001C21AA840144DC8183073100050491EF41
:100E6000A9479305310005460145DC81E13A228519
:100E7000B2402244924441018280054693053100EC
:100E80000145C932B38784009C23DC81F1B700009F
:100E900050564420617420455854490D000000000C
:100EA00053797374656D436C6B3A25640D0A0000C9
:080EB000286E756C6C2900002E
:100EB800006CDC020204060804080C100810182054
:100EC8001020304020406080010203040506070816
:080ED8000102030405060708EE
:00000001FF
