:100000006F00A043000000004A0100004E01000004
:1000100000000000000000000000000000000000E0
:1000200000000000000000000000000000000000D0
:1000300008040000000000000A04000000000000A6
:100040000C0400000E040000100400001204000064
:100050001404000016040000180400001A04000034
:100060001C0400001E040000200400002204000004
:100070002404000026040000280400002A040000D4
:10008000480200002E04000030040000320400008A
:1000900034040000360400003804000000000000B2
:1000A000511126C022C206C4828282441244A24058
:1000B000310182802A86014593F6150091C232955E
:1000C00085810606F5F9828000000000634E050276
:1000D00063C305042E86AA857D5515C285466378BF
:1000E000B6006356C00006068606E36CB6FE014500
:1000F00063E4C500918D558D85820582F5FA828075
:100100008682C93F2E8582823305A04063D70500D1
:10011000B305B040C1B7B305B0408682653F330533
:10012000A0408282868263C70500634905005D376F
:100130002E858282B305B040E35B05FE3305A04007
:10014000513F3305B040828200007300203001A08F
:10015000EFF21FF511651301C1FD85451305050279
:1001600002C402C602C802CA02CC02CE02D002C039
:1001700002C29523930700027C84371401408D4707
:100180003EC62C00E147130504403EC80D2E9307E0
:1001900000047C842C009147130504403EC80526CA
:1001A000F16737440140938707203ECA4C08B707E0
:1001B0000C00130504803ECE02CC231001021D2B3F
:1001C0001305048005469305505201250546930505
:1001D000404213050480D52B930700127C8085478D
:1001E0005C810A8585473EC24D2E854513050480F6
:1001F000D1231301410255BDEFF29FEA2A84B304D3
:10020000B50063029404B7470140138707803A851D
:1002100093050008F52BB74701401387078065D980
:1002200005048345F4FF3A85E12BB74701409387E6
:1002300007803E8593050004E12BB7470140938773
:10024000078065D97DBF95B5711122C03744014043
:100250009305505213050480C92305C91305048072
:100260006523B7060020938696029C221375F50F2E
:1002700013F7F70F9307170093F7F70F9CA2B70731
:1002800000209387C702BA9788A33744014093059B
:10029000404213050480512301C9B70700200547D8
:1002A0002384E70283574480024411017300203005
:1002B000EFF21FDF01110945F12C712B7165130558
:1002C00005200925B707002083A507003715000082
:1002D0001305C504EF007042A53DB71500001306D5
:1002E0000002938585060A85EF00F0470A85EF0036
:1002F000B05493150501C1810A85FD3DB704002066
:1003000093878402982385466390E6023704002091
:1003100023800700130494020C20370500201305E6
:10032000C502D93D23000400371400001305C4059D
:10033000EF00D03E1305803E892B1305C405EF0066
:10034000F03D1305803E91231305C405EF00103DD9
:100350001305803E1D2B1305C405EF00303C13052B
:10036000803E25231305C405EF00503B1305803E56
:10037000292B79B7B71702409843B706FFFC1367DC
:10038000170098C3D843758FD8C39843B706F7FEB4
:10039000FD16758F98C39843B706FCFFFD16758F41
:1003A00098C3D44341777D17F98ED4C3B7069F0015
:1003B00094C7B72602409042719A90C29042136649
:1003C000160090C2D443D4C3D443758FD8C3D84346
:1003D000B7060001D8C39843558F98C39843931626
:1003E0006700E3DD06FED843B7160240719BD8C311
:1003F000D84313672700D8C32147DC42B18BE39E63
:10040000E7FE828001A001A001A001A001A001A03F
:1004100001A001A001A001A001A001A001A001A0D4
:1004200001A001A001A001A001A001A001A001A0C4
:1004300001A001A001A001A001A0970100209381CB
:10044000E13E138181FD171500001305A5C4970532
:100450000020938525BB17060020130626BD63FAEE
:10046000C5008322050023A0550011059105E3EA8C
:10047000C5FE17050020130565BB938501826377D0
:10048000B500232005001105E36DB5FE93020008B9
:10049000739002308D4273904280970200009382E5
:1004A00062B693E2320073905230EFF0BFEC9702E5
:1004B0000000938222E073901234730020309C4538
:1004C000611122C226C013F7070113F3F70001C719
:1004D000D8413363E30092211377F60F29C78323B2
:1004E0000500014713048002930480048546B395F8
:1004F000E600B376B6006392D50293122700BD469C
:10050000B396560093C6F6FFB3F37600B3125300CA
:10051000B3E37200639787064CC90507A146E3174A
:10052000D7FC232075001307F00F6378C7048323DB
:100530004500A14613048002930480040547B312CA
:10054000D700337756006394E20213972600011711
:10055000BD45B395E50093C5F5FFB3F375003317BB
:10056000E300B363770063928702232A5500850670
:100570004147E395E6FC23227500124482442101A1
:100580008280E39C97F80CC949BFE39297FE232829
:100590005500F1BF23ACA180828093878181944371
:1005A000182181E63C21920721A894430546639FC8
:1005B000C6023C21103192076314D60093E707F876
:1005C000B7E600E093F7F70FBA962380F64085462A
:1005D000935757003397E6005441A5C29387070409
:1005E0008A07B7E600E0B69798C382808C438946B5
:1005F0006391D50214313C216365D6008A06B69713
:100600005DB79386E6038A06B69793F7F70F9207CE
:1006100075B790438D46631CD60014313C2163644A
:10062000D6008606E9BF9386C6078606F1BF9443C7
:100630009147E39EF6F81C31BDB7938707064DB787
:10064000EFF21FA6371702405C4391462A84B18B14
:100650006385D700A146638AD706B7376E019387B3
:1006600007601CC0B7160240DC42918313F7F70005
:10067000B707002093878701BA978C23DC42184084
:1006800093F5F50F93F707083355B70099E33A85CB
:10069000913448C008C448C4B7170240DC43AD8356
:1006A000FD8B13D737008A07F18BD98F93F637016B
:1006B0000D476373D700D117370700201307470092
:1006C000BA978C23013C08C8CDB25C43B777DC02F3
:1006D000938707C079B799C5371702401C4F5D8DC6
:1006E00008CF8280B7170240984F1345F5FF798DE8
:1006F00088CF8280EFF2DF9A1629F577FD17F58F04
:10070000F621DA252111D58F1EA95625FD7793876D
:10071000379FF58FD6212A842EC0D58F9625D58F69
:10072000B625D58F5EA55E29C207C18393F7F7CFA3
:100730005D8F5AA948002937B74701409387078042
:100740008245631DF404C2475A24139517003E9551
:1007500042070E0541873E958C4163530704860589
:10076000953A930540062AC0B53282479314450056
:10077000930540063E8569325E24C207C18763D374
:1007800007020E059305400613052503A1321D89B6
:10079000C98CC204C18006A4610101BAB2476DB719
:1007A0008A057DBF120593054006130525031D32FA
:1007B0003D89F9BF91C55E250967D98F5EA5828005
:1007C0005A25F977FD17F98FD5BF13F7F50F854730
:1007D0001583B395B7006319F7009307C5009843D5
:1007E00001CED98D8CC38280894693074501E318D9
:1007F000D7FE93070501E5B793C5F5FFF98DDDB782
:1008000093F5F51F4EA182804A211375F51F828052
:100810000A216D8D3335A000828013F7F50F8546D0
:100820001583B397B6006311D7025A25F98F1A21A1
:1008300001454207418381CB0545A181B315B50030
:100840006D8F3335E000828089466314D7001A2902
:10085000F1BF5A29E1BFEFF2BF84B707002003A51B
:100860000700B7157A0093850520EFF0BF86137552
:10087000F50F238FA18093175500898F8A073E9526
:100880000E05239EA1806FF05F82EFF27F8137F427
:1008900000E05C40AA85F99B5CC003D5C181EFF004
:1008A0007F8108C8232404001C4093E717001CC064
:1008B000B7F700E0D843058B75DF9843799B98C361
:1008C0006FF0AFFEEFF2CFFD2A841165111185455F
:1008D000130505020935930700027C803715014096
:1008E0008D473EC28A85E147130505403EC4C13E9F
:1008F00022C637440140B70708006C001305048086
:100900003ECA02C8231C0100F53385451305048047
:10091000553571016FF06FF9EFF28FF87111AE84F8
:100920000144635DC402B7470140138707803A85DD
:100930009305000432C0E93DB747014013870780A3
:10094000024675D533878400830507001385078029
:100950000504C205C1816D350246E1B7328511013A
:100960006FF0AFF4411106C62EC00DCD1841AA8715
:1009700005C358417D5511CB8546631BD700984769
:100980002300070023A207000545B24041018280F1
:100990009847824614A39847050798C7D8437D1700
:1009A000D8C3DDB705468A85853FF9BF011122CC42
:1009B0002EC206CE26CA2A848147930500026345CB
:1009C00006029245BE95838505008DE563D8C70272
:1009D00063D4E702198E1305000293F526002AC09E
:1009E00089C501E7930500032EC0858A814495EAF5
:1009F000B2840DA08507F1B71D8EF1BF0146E1BF9E
:100A0000824522853AC832C63EC4A93FA247324633
:100A10004247FD14E34690FEB284635306008144CE
:100A2000058E63C7E702A6879246338797403697BD
:100A30008305070095EDB284634490046353060078
:100A40000146F2406244D2443305F60005618280DB
:100A50001D8FBA8793050003228532C83EC63AC46B
:100A60001137B24722474246FD17EDF7BA9465BFEA
:100A7000228532C63EC4FD35A247324685076DB792
:100A80008245228532C43EC2F13DFD142246924782
:100A900065B7397106DE22DC26DA3EC232833A8639
:100AA00089ED92469307000301476C08FC86FD3DE3
:100AB000F2506254D25421618280AA843684AE8777
:100AC00091CA294701446317E30063D50500B307C2
:100AD000B04005448646A3090102130731039386FB
:100AE00066FC36C49A853E8532CA3AC81AC63EC0EC
:100AF000EFF00FE1A546824732434247524663D4A6
:100B0000A600A2463695130505039306F7FFA30F2B
:100B1000A7FE9A853E8532CC3ACA1AC83EC636C070
:100B2000EFF04FDBB24742435247624663F9670436
:100B300001CC29CA9247898BB1C79305D00226857B
:100B400032C40D3522467D169247918B95C30647D8
:100B50009307100632C4930500032685631EF7022F
:100B60001135930580072685F53B22460904791641
:100B70001647924682452685153D229515BFAA87C0
:100B800002478DB782469307D0020144A38FF6FE39
:100B90009307E7FF3EC04DBFF13393058005E1B7F2
:100BA0000145828001458280130181FD22D026CE3D
:100BB00006D22AC4AE82328402C6814483850200F2
:100BC00089EDA24781C781453E85693B9250025419
:100BD0002685F244130181028280930750026388C4
:100BE000F500224516C88504B53BC24239A8838763
:100BF000120013871200639CB70022459305500230
:100C00003AC88D3342478504BA82850245BFD5DB99
:100C10009306B0026389D70463C8F60093063002D6
:100C20006386D704814705A09306D002638AD70064
:100C300093060003E398D7FE13872200894721A07B
:100C4000138722008547830607001306B0026383DB
:100C5000C6046341D60213063002638BC602BA8211
:100C60000145A54681A0138722006DBF138722008E
:100C70009147D1BF1306D0026389C6001306000353
:100C8000E39FC6FC93E7270031A005078547C1BF56
:100C900093E747000507E1B71316250032950605CF
:100CA0003A95850203860200130706FD9375F70F38
:100CB000E3F4B6FE1307E0029946631EE6008502E0
:100CC0008146A54503860200130606FD1377F60F3D
:100CD00063F5E50236C6038702001306A006630D1E
:100CE000C70A6343E6021306C0046307C70A130674
:100CF0008006630CC70881452DA813972600BA9675
:100D00008606B29685027DBF130640076306C708B4
:100D10001306A0076302C7081306C0068145631ABD
:100D2000C700038612008D456314E60085029145D5
:100D3000850203860200930300061307100663C4AE
:100D4000C300130710049303700663C4C306930320
:100D50005006635376189303700463C1C30493056C
:100D60005004635BB61613073004E310E6EA18403C
:100D70009303440016CA230CE1001EC8A30C010013
:100D80000147BE862A862C0849A8038612008145A1
:100D9000E311E6FA890271BF8502B1BF93063006FE
:100DA000E307D6FC63CEC606930680056303D6022E
:100DB000A9BD930630076304D60463CBC60293062D
:100DC000F0066302D60E9306000793E74700E31E82
:100DD000D6E29146639FD50A930384000C405040AD
:100DE00016CA3AC23EC01EC8AA870147C146B9A06A
:100DF000930650076308D6069306800745BF184040
:100E0000B7160000930344009385860811C3BA8582
:100E1000324716CA1EC8BE862A862245413E0DA00C
:100E200091466394D502930384000C40504016CA47
:100E30003AC23EC01EC8AA870547A94622458D333F
:100E4000C243AA941E84D242C9B3B2460C4016C80B
:100E500036C23AC011042A878546294622451539EB
:100E6000AA9461B39146639DD500930384000C401E
:100E7000504016CA3AC23EC01EC8AA87014775BF75
:100E8000B2460C4016C836C23AC011042A878146C1
:100E9000E9B7B24616C80C40414636C23AC0110402
:100EA0002A87814665BF9146639ED50093038400DF
:100EB0000C40504016CA3AC23EC01EC8AA8701471D
:100EC000A146ADBFB2460C4016C836C23AC01104A6
:100ED0002A878146214659B70C40130684004040BA
:100EE0003AC22A87224532C83EC02286B687A94622
:100EF00016CA4D39AA944244B9B71301C1FD2EC890
:100F000032CAAA851008014506C636CC3ACE3ED074
:100F100032C05939B240130141028280411122C4CA
:100F200026C206C61C21AA840144DC818307310045
:100F3000050499EFA9479305310005460145DC8179
:100F4000EFF09F9D2285B24022449244410182806D
:100F50000546930531000145EFF01F9CB3878400DF
:100F60009C23DC81E1B7B3C7A5008D8B3307C50097
:100F700081E78D4763E7C702AA87637EE50A94216C
:100F800085078505A38FD7FEE3EBE7FE82809421DA
:100F900085078505A38FD7FEE3EBE7FE0244110129
:100FA000828093763500AA8789CA942185078505B2
:100FB000A38FD7FE93F63700C5BF9376C7FF13867E
:100FC00006FE63F5C706711122C0C04903A30500E0
:100FD00083A38500C0CB804D23A0670003A34500F9
:100FE00080CFC04D23A2670083A2C50003A30501E3
:100FF00093854502C0CF03A4C5FF23A4770023A691
:10100000570023A867009387470223AE87FEE3EECD
:10101000C7FAE3F3D7F890419107910523AEC7FED5
:10102000CDBF90419107910523AEC7FEE3EBD7FEFC
:10103000E3E7E7F482808280AA87850703C7F7FF8A
:101040006DFF3385A7407D1582800000537973744E
:10105000656D436C6B3A25640D0A00002D2D2D2D16
:101060002D2D2D2D2D2D0D00535441525420494E20
:10107000544552525550542049444C4520554152F4
:1010800054202121210D0A00286E756C6C29000066
:10109000006CDC020204060804080C10081018207A
:1010A000102030402040608001020304050607083C
:0810B000010203040506070814
:00000001FF
