:100000006F00402D000000004A0100004E0100007A
:1000100000000000000000000000000000000000E0
:1000200000000000000000000000000000000000D0
:100030004C06000000000000A402000000000000C8
:10004000A6020000A8020000AA020000AC02000004
:10005000AE020000B0020000B2020000B4020000D4
:10006000B6020000B8020000BA020000BC020000A4
:10007000BE020000C0020000C2020000C402000074
:10008000C6020000C8020000CA020000CC02000044
:10009000CE020000D0020000D202000000000000EA
:1000A000511126C022C206C4828282441244A24058
:1000B000310182802A86014593F6150091C232955E
:1000C00085810606F5F9828000000000634E050276
:1000D00063C305042E86AA857D5515C285466378BF
:1000E000B6006356C00006068606E36CB6FE014500
:1000F00063E4C500918D558D85820582F5FA828075
:100100008682C93F2E8582823305A04063D70500D1
:10011000B305B040C1B7B305B0408682653F330533
:10012000A0408282868263C70500634905005D376F
:100130002E858282B305B040E35B05FE3305A04007
:10014000513F3305B040828200007300203001A08F
:10015000EFF21FF551118545414502C002C202C4AC
:100160007526930700027C808A85930780043715E3
:1001700001403EC4D52231010DBFEFF27FF22A8447
:1001800015657111130555552EC07D241375F40F97
:10019000452C82452E854D2C652CD124110131B77B
:1001A000EFF21FF00945D924AD2171651305052033
:1001B0003523B707002083A5070037150000130576
:1001C00085D7EF00D03469378565938505FA1545E5
:1001D0006D3737150000130585D8EF0070353714DB
:1001E00000009305000237150140912401ED3715F9
:1001F00000001305C5D9EF00B033992C1305800C0E
:100200007D21C5B7130584DAEF009032C5BFB7175B
:1002100002409843B706FFFC1367170098C3D84302
:10022000758FD8C39843B706F7FEFD16758F98C330
:100230009843B706FCFFFD16758F98C3D4434177EA
:100240007D17F98ED4C3B7069F0094C7B726024026
:100250009042719A90C290421366160090C2D443A5
:10026000D4C3D443758FD8C3D843B7060001D8C3CD
:100270009843558F98C3984393166700E3DD06FEB5
:10028000D843B7160240719BD8C3D84313672700E1
:10029000D8C32147DC42B18BE39EE7FE828001A0F8
:1002A00001A001A001A001A001A001A001A001A046
:1002B00001A001A001A001A001A001A001A001A036
:1002C00001A001A001A001A001A001A001A001A026
:1002D00001A001A09701002093814155138181FD68
:1002E00017150000130505AE97050020938585D1ED
:1002F00017060020130686D363FAC5008322050083
:1003000023A0550011059105E3EAC5FE170500205D
:100310001305C5D1938581806377B500232005003F
:100320001105E36DB5FE93020008739002308D4213
:1003300073904280970200009382C2CC93E2320015
:1003400073905230EFF0BFEC97020000938282E589
:1003500073901234730020309C45611122C226C074
:1003600013F7070113F3F70001C7D8413363E30024
:1003700092211377F60F29C7832305000147130441
:100380008002930480048546B395E600B376B600F8
:100390006392D50293122700BD46B396560093C6CA
:1003A000F6FFB3F37600B3125300B3E37200639722
:1003B00087064CC90507A146E317D7FC2320750023
:1003C0001307F00F6378C70483234500A146130485
:1003D0008002930480040547B312D7003377560098
:1003E0006394E202139726000117BD45B395E5001B
:1003F00093C5F5FFB3F375003317E300B3637700DC
:1004000063928702232A550085064147E395E6FC5F
:10041000232275001244824421018280E39C97F8D4
:100420000CC949BFE39297FE23285500F1BF084548
:100430006D8D3335A0008280B737004088C382803D
:10044000B7370040C8C38280B737004088C7828072
:10045000AD67373700409387A7AA1CC38280B56772
:10046000373700409387C7CC1CC38280B707002072
:1004700023A4A7028280EFF2BFC2371702405C4379
:1004800091462A84B18B6385D700A146638AD7063B
:10049000B7376E01938707601CC0B7160240DC4275
:1004A000918313F7F700B707002093878701BA9766
:1004B0008C23DC42184093F5F50F93F7070833556A
:1004C000B70099E33A85393148C008C448C4B71722
:1004D0000240DC43AD83FD8B13D737008A07F18BD5
:1004E000D98F93F637010D476373D700D1173707BC
:1004F000002013074700BA978C23E93E08C875B659
:100500005C43B777DC02938707C079B799C5371783
:1005100002401C4F5D8D08CF8280B7170240984F74
:100520001345F5FF798D88CF8280EFF27FB71629CA
:10053000F577FD17F58FF621DA252111D58F1EA944
:100540005625FD779387379FF58FD6212A842EC0B5
:10055000D58F9625D58FB625D58F5EA55E29C20786
:10056000C18393F7F7CF5D8F5AA948002937B74762
:100570000140938707808245631DF404C2475A24D3
:10058000139517003E9542070E0541873E958C4115
:100590006353070486053D3E930540062AC01D3E71
:1005A000824793144500930540063E85913E5E24A4
:1005B000C207C18763D307020E05930540061305E2
:1005C0002503093E1D89C98CC204C18006A46101AE
:1005D000E9BCB2476DB78A057DBF12059305400699
:1005E00013052503C53C3D89F9BF91C55E25096703
:1005F000D98F5EA582805A25F977FD17F98FD5BF6F
:1006000093F5F51F4EA182800A216D8D3335A00030
:100610008280EFF2FFA837F400E023200400056792
:10062000B7E700E023A0E710B707002003A5070005
:100630009305803E45347D1508C823240400B70780
:10064000002023A607029D471CC085B479713EC0D7
:10065000B707002022CE2ACA37F400E003A507001E
:1006600026CC04482EC89305803E3AC206D616D43E
:100670001AD21ED032C636C4B13C269508C8B70778
:100680000020232204009387C70298437244B2508B
:10069000050798C3A25212538253E2445245C24501
:1006A0003246A24612478247456173002030EFF27E
:1006B0003F9FB7F700E08047B7070020AA8403A553
:1006C00007009305803E3934A685ED32229537F731
:1006D00000E01C47898FE3CE07FEC1BAEFF25F9CB2
:1006E0002A84116511118545130505020535930707
:1006F00000027C80371501408D473EC28A85E14764
:10070000130505403EC4893922C637440140B70766
:1007100008006C00130504803ECA02C8231C0100B7
:100720002935854513050480C9357101BDBAEFF23D
:100730003F977111AE840144635DC402B747014025
:10074000138707803A859305000432C0753DB7478B
:10075000014013870780024675D5338784008305DF
:100760000700138507800504C205C181513D02467B
:10077000E1B73285110115BA411106C62EC00DCD63
:100780001841AA8705C358417D5511CB8546631B87
:10079000D70098472300070023A207000545B24071
:1007A000410182809847824614A39847050798C75D
:1007B000D8437D17D8C3DDB705468A858D3FF9BF7D
:1007C000011122CC2EC206CE26CA2A848147930567
:1007D0000002634506029245BE95838505008DE5BE
:1007E00063D8C70263D4E702198E1305000293F59C
:1007F00026002AC089C501E7930500032EC0858A1B
:10080000814495EAB2840DA08507F1B71D8EF1BF32
:100810000146E1BF824522853AC832C63EC4A93F9F
:10082000A24732464247FD14E34690FEB28463532A
:1008300006008144058E63C7E702A6879246338788
:10084000974036978305070095EDB2846344900482
:10085000635306000146F2406244D2443305F60079
:10086000056182801D8FBA8793050003228532C8F7
:100870003EC63AC41137B24722474246FD17EDF74C
:10088000BA9465BF228532C63EC4FD35A2473246C2
:1008900085076DB78245228532C43EC2F13DFD1405
:1008A0002246924765B7397106DE22DC26DA3EC25F
:1008B00032833A8689ED92469307000301476C081C
:1008C000FC86FD3DF2506254D25421618280AA849C
:1008D0003684AE8791CA294701446317E30063D584
:1008E0000500B307B04005448646A309010213077B
:1008F0003103938666FC36C49A853E8532CA3AC86F
:100900001AC63EC0EFF0CFFFA546824732434247AA
:10091000524663D4A600A2463695130505039306F6
:10092000F7FFA30FA7FE9A853E8532CC3ACA1AC8B4
:100930003EC636C0EFF00FFAB24742435247624616
:1009400063F9670401CC29CA9247898BB1C7930523
:10095000D002268532C40D3522467D169247918BF2
:1009600095C306479307100632C4930500032685F6
:10097000631EF7021135930580072685F53B224655
:10098000090479161647924682452685153D22951B
:1009900015BFAA8702478DB782469307D00201444C
:1009A000A38FF6FE9307E7FF3EC04DBFF1339305DB
:1009B0008005E1B70145828001458280130181FDF8
:1009C00022D026CE06D22AC4AE82328402C6814408
:1009D0008385020089EDA24781C781453E85693B39
:1009E000925002542685F2441301810282809307BB
:1009F00050026388F500224516C88504B53BC24203
:100A000039A88387120013871200639CB700224520
:100A1000930550023AC88D3342478504BA82850255
:100A200045BFD5DB9306B0026389D70463C8F600DF
:100A3000930630026386D704814705A09306D0024F
:100A4000638AD70093060003E398D7FE138722003A
:100A5000894721A0138722008547830607001306D4
:100A6000B0026383C6046341D60213063002638B6F
:100A7000C602BA820145A54681A0138722006DBF38
:100A8000138722009147D1BF1306D0026389C600A5
:100A900013060003E39FC6FC93E7270031A0050778
:100AA0008547C1BF93E747000507E1B71316250047
:100AB000329506053A95850203860200130706FD66
:100AC0009375F70FE3F4B6FE1307E0029946631E31
:100AD000E60085028146A54503860200130606FD51
:100AE0001377F60F63F5E50236C603870200130697
:100AF000A006630DC70A6343E6021306C00463073A
:100B0000C70A13068006630CC70881452DA81397F2
:100B10002600BA968606B29685027DBF1306400768
:100B20006306C7081306A0076302C7081306C006BA
:100B30008145631AC700038612008D456314E600E1
:100B40008502914585020386020093030006130780
:100B5000100663C4C300130710049303700663C434
:100B6000C30693035006635376189303700463C15E
:100B7000C30493055004635BB61613073004E310F7
:100B8000E6EA18409303440016CA230CE1001EC88D
:100B9000A30C01000147BE862A862C0849A80386BB
:100BA00012008145E311E6FA890271BF8502B1BFE7
:100BB00093063006E307D6FC63CEC606930680058F
:100BC0006303D602A9BD930630076304D60463CB42
:100BD000C6029306F0066302D60E9306000793E75B
:100BE0004700E31ED6E29146639FD50A9303840033
:100BF0000C40504016CA3AC23EC01EC8AA870147E0
:100C0000C146B9A0930650076308D606930680072D
:100C100045BF1840B716000093034400938586DB58
:100C200011C3BA85324716CA1EC8BE862A86224517
:100C3000413E0DA091466394D502930384000C407D
:100C4000504016CA3AC23EC01EC8AA870547A946E8
:100C500022458D33C243AA941E84D242C9B3B24600
:100C60000C4016C836C23AC011042A878546294668
:100C700022451539AA9461B39146639DD50093032B
:100C800084000C40504016CA3AC23EC01EC8AA8713
:100C9000014775BFB2460C4016C836C23AC01104AF
:100CA0002A878146E9B7B24616C80C40414636C28B
:100CB0003AC011042A87814665BF9146639ED500DC
:100CC000930384000C40504016CA3AC23EC01EC86E
:100CD000AA870147A146ADBFB2460C4016C836C22E
:100CE0003AC011042A878146214659B70C401306A1
:100CF000840040403AC22A87224532C83EC022863C
:100D0000B687A94616CA4D39AA944244B9B7130109
:100D1000C1FD2EC832CAAA851008014506C636CCC8
:100D20003ACE3ED032C05939B240130141028280DE
:100D3000411122C426C206C61C21AA840144DC81BA
:100D400083073100050491EFA9479305310005465B
:100D50000145DC81E93A2285B240224492444101B6
:100D600082800546930531000145D132B387840066
:100D70009C23DC81F1B7000053797374656D436C7B
:100D80006B3A25640D0A00002D2D2D2D2053544162
:100D90005254202D2D2D2D2D2D0D000046656564FE
:100DA00020646F670D000000446F6E277420666535
:100DB000656420646F670D00286E756C6C290000F7
:100DC000006CDC020204060804080C10081018204D
:100DD000102030402040608001020304050607080F
:080DE0000102030405060708E7
:00000001FF
