:100000006F00004400000000F2010000F601000053
:1000100000000000000000000000000000000000E0
:1000200000000000000000000000000000000000D0
:10003000700A000000000000100400000000000032
:10004000120400001404000016040000180400004C
:100050001A0400001C0400001E040000200400001C
:1000600022040000240400002604000028040000EC
:100070002A040000E20200002E0400003004000008
:10008000320400003404000036040000380400008C
:100090003A0400003C0400003E04000000000000A0
:1000A000511126C022C206C4828282441244A24058
:1000B000310182802A86014593F6150091C232955E
:1000C00085810606F5F9828000000000634E050276
:1000D00063C305042E86AA857D5515C285466378BF
:1000E000B6006356C00006068606E36CB6FE014500
:1000F00063E4C500918D558D85820582F5FA828075
:100100008682C93F2E8582823305A04063D70500D1
:10011000B305B040C1B7B305B0408682653F330533
:10012000A0408282868263C70500634905005D376F
:100130002E858282B305B040E35B05FE3305A04007
:10014000513F3305B040828200003D432A876373EC
:10015000C3029377F700BDEFADE5937606FF3D8AC6
:10016000BA960CC34CC30CC74CC74107E36BD7FE10
:1001700011E28280B306C3408A0697020000969679
:100180006780A6002307B700A306B7002306B700C1
:10019000A305B7002305B700A304B7002304B700E5
:1001A000A303B7002303B700A302B7002302B700DD
:1001B000A301B7002301B700A300B7002300B700D5
:1001C000828093F5F50F93968500D58D9396050162
:1001D000D58D61B793962700970200009696868288
:1001E000E78086FA9680C1171D8F3E96E374C3F8A8
:1001F000A5B77300203001A0EFF29FEA130141FD83
:1002000061468145480891378545414502C402C68B
:1002100002C802C002C2F525854513050020D52578
:100220003165052DC1472C003715014037240140A9
:100230007C8402C85129130504406924B7070E00C5
:100240003ED04C088547130504402304F10202CA3E
:1002500002CC02CE02D2492C9D46054689451305A3
:1002600004401D2E1306401F93054038130504401B
:10027000F52E894513050440ED2EB70580009385C2
:10028000052013050440D12E9307D0217C800A85D8
:1002900085473EC223010100012BB705000213056B
:1002A0000440092905469305001413050440612CF8
:1002B0008545130504404124130504404524930457
:1002C000044026854D2475FD130504403724014064
:1002D000792C130404402285452475FD1301C102C5
:1002E000E9B3372501409305001413050540452661
:1002F00019C5371500001305C51AEF0070663725BC
:100300000140930500141305054045267300203075
:10031000EFF21FD909456121716513050520EF0032
:10032000A07EB707002083A507003715000013053E
:10033000C51CEF00D06037240140E52D13040440B4
:10034000653D854522852D2C89452285052E6DDD4F
:1003500022850126AA848945228535261305401F5A
:10036000EF00407737150000A6851305C51DEF0087
:10037000105D0945EF000076E9B7B71702409843D2
:10038000B706FFFC1367170098C3D843758FD8C30F
:100390009843B706F7FEFD16758F98C39843B706C6
:1003A000FCFFFD16758F98C3D44341777D17F98EF6
:1003B000D4C3B7069F0094C7B72602409042719AF3
:1003C00090C290421366160090C2D443D4C3D44363
:1003D000758FD8C3D843B7060001D8C39843558F4B
:1003E00098C3984393166700E3DD06FED843B7161B
:1003F0000240719BD8C3D84313672700D8C3214755
:10040000DC42B18BE39EE7FE828001A001A001A047
:1004100001A001A001A001A001A001A001A001A0D4
:1004200001A001A001A001A001A001A001A001A0C4
:1004300001A001A001A001A001A001A001A001A0B4
:10044000970100209381813E138181FD17150000E3
:10045000130505DA970500209385C5BA1706002015
:100460001306C6BC63FAC5008322050023A055000D
:1004700011059105E3EAC5FE17050020130505BB2C
:10048000938581806377B500232005001105E36D16
:10049000B5FE93020008739002308D427390428043
:1004A00097020000938202B693E2320073905230BA
:1004B000EFF0BFEC970200009382C2E57390123414
:1004C00073002030B727014093870740631DF50074
:1004D000EFF21FBD854513050020992181451305C5
:1004E00000203D29D9B682805C413707F1FF130710
:1004F000F7EF7D8FDC419441A207D58FD98F5CC186
:100500001C4537F7F1FF1307D77FD4457D8F9C49F2
:10051000D58F94458606D58FD98F1CC55C55370776
:1005200010FF7D177D8FDC29FD1793F7F70FD2079A
:10053000D98F5CD582801C4589C593E717001CC5FF
:100540008280F99BEDBF5C4193F5F50F01C6DD8D0F
:100550004CC1828093C5F5FFFD8DDDBF1C4593E73F
:1005600087001CC5828008450D81058982801C4555
:1005700093E747001CC58280084509810589828070
:100580001C4591C537075000D98F1CC5828037079D
:10059000B0FF7D17F98FD5BFA54763F8B704138760
:1005A00065FF931717008322C500BA971D433313C5
:1005B000F3001343F3FF33735300B397F600B3E72D
:1005C00067005CC5994763E3C7047D16931726004F
:1005D0003E965859FD47B397C70093C7F7FFF98F69
:1005E000B395C500DD8D4CD9828093971500032308
:1005F0000501AE971D473317F7001347F7FF337711
:100600006700B397F6005D8F18C96DBFB14763E20D
:10061000C7026516931726003E961859FD47B397F3
:10062000C70093C7F7FFF98FB395C500DD8D0CD9CF
:1006300082804D161317260054553A96FD47B397FE
:10064000C70093C7F7FFF58FB395C500DD8D4CD577
:10065000828068454205418182805C41370740FFC6
:100660001307F7DFF98FDD8D4CC182804CD110D597
:1006700082805C41819BDD8D4CC1828008416D8D03
:100680003335A000828093C5F5FF0CC182805841AC
:10069000144193D78500F58F99C713F5F50F798D20
:1006A0003335A000828001458280A18193C5F5FF8A
:1006B0000CC182805C41370700FA7D17F98F5CC15D
:1006C0005C41DD8D4CC182809C45611122C226C0F7
:1006D00013F7070113F3F70001C7D8413363E300B1
:1006E00092211377F60F29C78323050001471304CE
:1006F0008002930480048546B395E600B376B60085
:100700006392D50293122700BD46B396560093C656
:10071000F6FFB3F37600B3125300B3E372006397AE
:1007200087064CC90507A146E317D7FC23207500AF
:100730001307F00F6378C70483234500A146130411
:100740008002930480040547B312D7003377560024
:100750006394E202139726000117BD45B395E500A7
:1007600093C5F5FFB3F375003317E300B363770068
:1007700063928702232A550085064147E395E6FCEC
:10078000232275001244824421018280E39C97F861
:100790000CC949BFE39297FE23285500F1BFB70764
:1007A000002023A4A7028280B70700209387870236
:1007B0009443182181E63C21920721A894430546E1
:1007C000639FC6023C21103192076314D60093E761
:1007D00007F8B7E600E093F7F70FBA962380F640E4
:1007E0008546935757003397E6005441A5C2938737
:1007F00007048A07B7E600E0B69798C382808C4367
:1008000089466391D50214313C216365D6008A067E
:10081000B6975DB79386E6038A06B69793F7F70F08
:10082000920775B790438D46631CD60014313C2166
:100830006364D6008606E9BF9386C6078606F1BFC5
:1008400094439147E39EF6F81C31BDB793870706A2
:100850004DB7B7160240DC4241771307F77FF98F97
:100860005D8DC8C28280EFF2BF83371702405C43C0
:1008700091462A84B18B6385D700A146638DD70644
:10088000B7376E01938707601CC0B7160240DC4281
:10089000918313F7F700B707002093878701BA9772
:1008A0008C23DC42184093F5F50F93F70708335576
:1008B000B70081E73A85EFF0FF8148C008C448C41B
:1008C000B7170240DC43AD83FD8B13D737008A078F
:1008D000F18BD98F93F637010D476373D700D1178A
:1008E0003707002013074700BA978C23EFF08FFEDD
:1008F00008C86FF08FFB5C43B777DC02938707C0B3
:1009000061B799C5371702401C4F5D8D08CF8280B3
:10091000B7170240984F1345F5FF798D88CF828035
:1009200099C5371702405C475D8D48C78280B7176D
:100930000240D8471345F5FF798DC8C78280EFF292
:100940002FF61629F577FD17F58FF621DA252111F7
:10095000D58F1EA95625FD779387379FF58FD62112
:100960002A842EC0D58F9625D58FB625D58F5EA526
:100970005E29C207C18393F7F7CF5D8F5AA948005C
:10098000DD35B74701409387078082456312F4063F
:10099000C2475A24139517003E9542070E0541871A
:1009A0003E958C41635807048605EFF0AFF293053E
:1009B00040062AC0EFF00FF28247931445009305DA
:1009C00040063E85EFF0CFF35E24C207C18763D5B2
:1009D00007020E059305400613052503EFF08FEF80
:1009E0001D89C98CC204C18006A461016FF0EFEBC0
:1009F000B24745B78A0555BF120593054006130552
:100A00002503EFF02FED3D89E9BF91C55E2509670C
:100A1000D98F5EA582805A25F977FD17F98FD5BF4A
:100A200093F5F51F4EA182800A216D8D3335A0000C
:100A30008280EFF2EFE637F400E023200400056740
:100A4000B7E700E023A0E710B707002003A50700E1
:100A50009305803EEFF00FE87D1508C823240400BD
:100A6000B707002023A607029D471CC06FF0EFE3E5
:100A700079713EC0B707002022CE2ACA37F400E0C1
:100A800003A5070026CC04482EC89305803E3AC231
:100A900006D616D41AD21ED032C636C4EFF08FE373
:100AA000269508C8B7070020232204009387C702B1
:100AB00098437244B250050798C3A252125382530E
:100AC000E2445245C2453246A2461247824745613A
:100AD00073002030EFF2CFDCB7F700E08047B707B4
:100AE0000020AA8403A507009305803EEFF08FDE67
:100AF000A685EFF02FDC229537F700E01C47898FA1
:100B0000E3CE07FE6FF06FDAEFF28FD92A8411651A
:100B10001111854513050502ED33930700027C8012
:100B2000371501408D473EC28A85E14713050540D0
:100B30003EC4593E22C637440140B70708006C0046
:100B4000130504803ECA02C8231C0100CD3B854525
:100B5000130504805D3D71016FF02FD5EFF24FD486
:100B60007111AE840144635DC402B747014013872D
:100B700007803A859305000432C07D35B7470140B0
:100B800013870780024675D53387840083050700E5
:100B9000138507800504C205C18159350246E1B7B6
:100BA000328511016FF06FD0411106C62EC00DCDF8
:100BB0001841AA8705C358417D5511CB8546631B53
:100BC000D70098472300070023A207000545B2403D
:100BD000410182809847824614A39847050798C729
:100BE000D8437D17D8C3DDB705468A85853FF9BF51
:100BF000011122CC2EC206CE26CA2A848147930533
:100C00000002634506029245BE95838505008DE589
:100C100063D8C70263D4E702198E1305000293F567
:100C200026002AC089C501E7930500032EC0858AE6
:100C3000814495EAB2840DA08507F1B71D8EF1BFFE
:100C40000146E1BF824522853AC832C63EC4A93F6B
:100C5000A24732464247FD14E34690FEB2846353F6
:100C600006008144058E63C7E702A6879246338754
:100C7000974036978305070095EDB284634490044E
:100C8000635306000146F2406244D2443305F60045
:100C9000056182801D8FBA8793050003228532C8C3
:100CA0003EC63AC41137B24722474246FD17EDF718
:100CB000BA9465BF228532C63EC4FD35A24732468E
:100CC00085076DB78245228532C43EC2F13DFD14D1
:100CD0002246924765B7397106DE22DC26DA3EC22B
:100CE00032833A8689ED92469307000301476C08E8
:100CF000FC86FD3DF2506254D25421618280AA8468
:100D00003684AE8791CA294701446317E30063D54F
:100D10000500B307B04005448646A3090102130746
:100D20003103938666FC36C49A853E8532CA3AC83A
:100D30001AC63EC0EFF0CFBCA546824732434247B9
:100D4000524663D4A600A2463695130505039306C2
:100D5000F7FFA30FA7FE9A853E8532CC3ACA1AC880
:100D60003EC636C0EFF00FB7B24742435247624625
:100D700063F9670401CC29CA9247898BB1C79305EF
:100D8000D002268532C40D3522467D169247918BBE
:100D900095C306479307100632C4930500032685C2
:100DA000631EF7021135930580072685F53B224621
:100DB000090479161647924682452685153D2295E7
:100DC00015BFAA8702478DB782469307D002014418
:100DD000A38FF6FE9307E7FF3EC04DBFF1339305A7
:100DE0008005E1B70145828001458280130181FDC4
:100DF00022D026CE06D22AC4AE82328402C68144D4
:100E00008385020089EDA24781C781453E85693B04
:100E1000925002542685F244130181028280930786
:100E200050026388F500224516C88504B53BC242CE
:100E300039A88387120013871200639CB7002245EC
:100E4000930550023AC88D3342478504BA82850221
:100E500045BFD5DB9306B0026389D70463C8F600AB
:100E6000930630026386D704814705A09306D0021B
:100E7000638AD70093060003E398D7FE1387220006
:100E8000894721A0138722008547830607001306A0
:100E9000B0026383C6046341D60213063002638B3B
:100EA000C602BA820145A54681A0138722006DBF04
:100EB000138722009147D1BF1306D0026389C60071
:100EC00013060003E39FC6FC93E7270031A0050744
:100ED0008547C1BF93E747000507E1B71316250013
:100EE000329506053A95850203860200130706FD32
:100EF0009375F70FE3F4B6FE1307E0029946631EFD
:100F0000E60085028146A54503860200130606FD1C
:100F10001377F60F63F5E50236C603870200130662
:100F2000A006630DC70A6343E6021306C004630705
:100F3000C70A13068006630CC70881452DA81397BE
:100F40002600BA968606B29685027DBF1306400734
:100F50006306C7081306A0076302C7081306C00686
:100F60008145631AC700038612008D456314E600AD
:100F7000850291458502038602009303000613074C
:100F8000100663C4C300130710049303700663C400
:100F9000C30693035006635376189303700463C12A
:100FA000C30493055004635BB61613073004E310C3
:100FB000E6EA18409303440016CA230CE1001EC859
:100FC000A30C01000147BE862A862C0849A8038687
:100FD00012008145E311E6FA890271BF8502B1BFB3
:100FE00093063006E307D6FC63CEC606930680055B
:100FF0006303D602A9BD930630076304D60463CB0E
:10100000C6029306F0066302D60E9306000793E726
:101010004700E31ED6E29146639FD50A93038400FE
:101020000C40504016CA3AC23EC01EC8AA870147AB
:10103000C146B9A0930650076308D60693068007F9
:1010400045BF1840B7160000930344009385461E21
:1010500011C3BA85324716CA1EC8BE862A862245E3
:10106000413E0DA091466394D502930384000C4049
:10107000504016CA3AC23EC01EC8AA870547A946B4
:1010800022458D33C243AA941E84D242C9B3B246CC
:101090000C4016C836C23AC011042A878546294634
:1010A00022451539AA9461B39146639DD5009303F7
:1010B00084000C40504016CA3AC23EC01EC8AA87DF
:1010C000014775BFB2460C4016C836C23AC011047B
:1010D0002A878146E9B7B24616C80C40414636C257
:1010E0003AC011042A87814665BF9146639ED500A8
:1010F000930384000C40504016CA3AC23EC01EC83A
:10110000AA870147A146ADBFB2460C4016C836C2F9
:101110003AC011042A878146214659B70C4013066C
:10112000840040403AC22A87224532C83EC0228607
:10113000B687A94616CA4D39AA944244B9B71301D5
:10114000C1FD2EC832CAAA851008014506C636CC94
:101150003ACE3ED032C05939B240130141028280AA
:10116000411122C426C206C61C21AA840144DC8186
:1011700083073100050499EFA9479305310005461F
:101180000145DC81EFF09F9D2285B24022449244CC
:10119000410182800546930531000145EFF01F9C17
:1011A000B38784009C23DC81E1B70000456E746541
:1011B0007220416E616C6F675761746368646F671A
:1011C00020496E746572727570740D005379737472
:1011D000656D436C6B3A25640D0A0000253034645C
:0C11E0000D0A0000286E756C6C290000E0
:1011EC00006CDC020204060804080C10081018201D
:1011FC0010203040204060800102030405060708DF
:08120C000102030405060708B6
:00000001FF
