:100000006F00A066000000004A0100004E010000E1
:1000100000000000000000000000000000000000E0
:1000200000000000000000000000000000000000D0
:1000300038060000000000003A0600000000000042
:100040003C0600003E06000040060000420600009C
:100050004406000046060000480600004A0600006C
:100060004C0600004E06000050060000520600003C
:100070005406000056060000580600005A0600000C
:100080005C0600005E0600006006000062060000DC
:10009000640600006606000068060000000000001C
:1000A000511126C022C206C4828282441244A24058
:1000B000310182802A86014593F6150091C232955E
:1000C00085810606F5F9828000000000634E050276
:1000D00063C305042E86AA857D5515C285466378BF
:1000E000B6006356C00006068606E36CB6FE014500
:1000F00063E4C500918D558D85820582F5FA828075
:100100008682C93F2E8582823305A04063D70500D1
:10011000B305B040C1B7B305B0408682653F330533
:10012000A0408282868263C70500634905005D376F
:100130002E858282B305B040E35B05FE3305A04007
:10014000513F3305B040828200007300203001A08F
:10015000EFF21FF501112AC08545454502C202C4D0
:1001600002C602C802CA02CC02CEEF00F00A8545E0
:1001700037052000EF00300C1147F1440D444C00CE
:1001800037150140788226C622C4952309474C00C2
:1001900037150140788226C622C4912B82473754F6
:1001A00000400C083EC8B707FFBF3ECAB7070004AF
:1001B0003ECC130504409167FC86292513050440B5
:1001C0008545EF00406E854513050440EF006072E1
:1001D0000561E1BDEFF2DFEC211112542AC02EC6F9
:1001E00032C436C83AC23ECA0245B7050200EF0023
:1001F000207511C97D1401E4014561017DB50545F6
:10020000EF005018D5B702458545B7040300EF004D
:10021000006B85040245A685EF00207119E57D1469
:1002200061DC0545EF001016F5B71C860245014656
:10023000BE85B70407003EC693842408EF00C06D56
:100240000245A685EF00606E19E57D1455D405457D
:10025000EF005013F5B7C24785E70C840245B70499
:10026000070093844408EF00606A0245A685EF000A
:10027000C06B31ED7D1449D00545EF00B010F5B7E6
:10028000A2470245B704070093D58700EF00006836
:10029000938444080245A685EF00206919E57D1482
:1002A00021DC0545EF00100EF5B70C840245B704BC
:1002B000070093844408992D0245A685BD2501E9D0
:1002C0007D14E30B04F20545EF00D00BF5B70245B2
:1002D0008545B7040300E52385040245A685B125BD
:1002E00001E97D14E30A04F00545EF00B009F5B714
:1002F000B24502450546B7040300392D890402457D
:10030000A685252505C992475247BA973EC492470C
:100310002247638FE702B704001093840404024568
:10032000A685392D19ED7D14E30804EC0545EF0091
:100330007005F5B77D14E30104EC0545EF0090046A
:100340007DBF0245F123924788A385073EC2C1B70E
:1003500002458545512305454DB5EFF27FD4211166
:1003600012542AC02EC632C436C83AC23ECA02450A
:10037000B7050200F12311C97D1401E401456101B3
:100380002DB30545EF001000DDB73755004085451A
:1003900013050540B70403001D2385040245A68507
:1003A000692319E57D1479D80545EF00A07DFDB7D7
:1003B0000C8602450146B7040700B92B9384240834
:1003C0000245A6859D2319E57D144DD80545EF000E
:1003D000607BFDB7C24795E30C840245B704070074
:1003E0009384440825230245A685812329E57D14AD
:1003F00051D40545EF000079FDB7A2470245B70487
:10040000070093D587001923938444080245A685E5
:10041000292B19E57D143DD00545EF00A076FDB7E9
:100420000C840245B704070093844408C5210245A3
:10043000A685E52905C992475247BA973EC4924717
:100440002247638FE704B704001093840408024531
:10045000A685FD2119ED7D14E30204F20545EF00A8
:100460006072F5B77D14E30B04F00545EF00807171
:100470007DBF92470245B70407008C23938444084C
:1004800071210245A685552101E97D14E30804EE9A
:100490000545EF00206FF5B7924785073EC245B787
:1004A0000245854515290545D9BDEFF27FBF3111BC
:1004B0000945C121512D7165130505201927B7077D
:1004C000002083A507003715000013058527EF00DE
:1004D000B05261651305056AA5398567938747267C
:1004E0009843DC2337150000130585283AC25C8445
:1004F00002C623080100EF0050529307C05D375534
:1005000000403EC058009547854605469305E00AE1
:100510001305054099352DEDB71500009385052786
:10052000371500001305052AEF00104D1305401F75
:10053000912D371500001305452BEF00104E930742
:10054000C05D375500403EC078009547854605465A
:100550009305E00A13050540B53921E1B715000000
:1005600093850527371500001305C52CEF00D048EB
:10057000834701019887148790860C863715000001
:100580001305052EEF0050471305007DE52B01A054
:10059000B71500009385C52661B7B7150000938590
:1005A000C526C9B7B71702409843B706FFFC1367C3
:1005B000170098C3D843758FD8C39843B706F7FE82
:1005C000FD16758F98C39843B706FCFFFD16758F0F
:1005D00098C3D44341777D17F98ED4C3B7069F00E3
:1005E00094C7B72602409042719A90C29042136617
:1005F000160090C2D443D4C3D443758FD8C3D84314
:10060000B7060001D8C39843558F98C398439316F3
:100610006700E3DD06FED843B7160240719BD8C3DE
:10062000D84313672700D8C32147DC42B18BE39E30
:10063000E7FE828001A001A001A001A001A001A00D
:1006400001A001A001A001A001A001A001A001A0A2
:1006500001A001A001A001A001A001A001A001A092
:1006600001A001A001A001A001A097010020938199
:10067000E11B138181FD17150000130525C997059E
:10068000002093852598170600201306269A63FA02
:10069000C5008322050023A0550011059105E3EA5A
:1006A000C5FE170500201305659893858180637743
:1006B000B500232005001105E36DB5FE9302000887
:1006C000739002308D4273904280970200009382B3
:1006D000629393E2320073905230EFF0BFEC9702D6
:1006E00000009382C2DC73901234730020309C456A
:1006F000611122C226C013F7070113F3F70001C7E7
:10070000D8413363E30092211377F60F29C783237F
:100710000500014713048002930480048546B395C5
:10072000E600B376B6006392D50293122700BD4669
:10073000B396560093C6F6FFB3F37600B312530098
:10074000B3E37200639787064CC90507A146E31718
:10075000D7FC232075001307F00F6378C7048323A9
:100760004500A14613048002930480040547B31298
:10077000D700337756006394E202139726000117DF
:10078000BD45B395E50093C5F5FFB3F37500331789
:10079000E300B363770063928702232A550085063E
:1007A0004147E395E6FC232275001244824421016F
:1007B0008280E39C97F80CC949BFE39297FE2328F7
:1007C0005500F1BFEFF2DF8D111146212A84280078
:1007D0002EC06D22C246C204C18093F404FCB7450A
:1007E0000F00938505243685C20436C2C180EFF020
:1007F0007F8E458D420541814AA01E209246C20748
:10080000C183F99BC207C1831EA082479043E16761
:100810009387076A9315160063E6C7043685EFF0E1
:100820007F8BAA874205418191466373D50091472A
:100830001395070141814AAC1E20024793E7170038
:100840001EA01E2056233227C207C183D18E93F7E4
:1008500057BFD58F1EA016275E27D58F1EA4710106
:100860006FF0BF848247EA23B167FD176310F5027A
:10087000B2953685EFF01F864205418193174501F9
:1008800099E313651500A1675D8D75B7B387C50042
:100890008E07B385C7003685EFF0DF8342054181BF
:1008A00091675D8DE1BF1E2189C593E717001EA1E9
:1008B0008280C207C183F99BC207C183CDBF1E21BD
:1008C00089C593E707101EA18280C207C18393F7F1
:1008D000F7EFC207C183C5BF1E2189C593E7072073
:1008E0001EA18280C207C18393F7F7DFC207C183CD
:1008F000C5BF1E2189C593E707401EA18280C2079C
:10090000C18393F7F7BFC207C183C5BF0EA9828019
:100910000A291375F50F828093F7E50F19C293E743
:100920001500C207C1831EA982805E290A2D4205D7
:100930005D8D6D8D220521810D8D13351500828011
:10094000611102C002C293D7C5012AC23EC08247CC
:10095000A205A18199CB9247D1073EC29247884315
:1009600021016D8D3335A00082809247C181E1075E
:10097000EDB7B707002023A4A7028280EFF24FF261
:10098000371702405C4391462A84B18B6385D700B8
:10099000A146638DD706B7376E01938707601CC0E9
:1009A000B7160240DC42918313F7F700B707002027
:1009B00093878701BA978C23DC42184093F5F50F93
:1009C00093F707083355B70081E73A85EFF08FF0CA
:1009D00048C008C448C4B7170240DC43AD83FD8B50
:1009E00013D737008A07F18BD98F93F637010D475C
:1009F0006373D700D1173707002013074700BA9752
:100A00008C23EFF02FED08C86FF02FEA5C43B77727
:100A1000DC02938707C061B799C5371702401C4FA6
:100A20005D8D08CF8280B7170240984F1345F5FFC0
:100A3000798D88CF828099C5371702405C4F5D8DD4
:100A400048CF8280B7170240D84F1345F5FF798D04
:100A5000C8CF8280EFF2CFE41629F577FD17F58F26
:100A6000F621DA252111D58F1EA95625FD7793870A
:100A7000379FF58FD6212A842EC0D58F9625D58F06
:100A8000B625D58F5EA55E29C207C18393F7F7CF40
:100A90005D8F5AA94800DD35B7470140938707802D
:100AA00082456312F406C2475A24139517003E95F7
:100AB00042070E0541873E958C4163580704860521
:100AC000EFF04FE1930540062AC0EFF0AFE0824718
:100AD00093144500930540063E85EFF06FE25E24D7
:100AE000C207C18763D507020E05930540061305AB
:100AF0002503EFF02FDE1D89C98CC204C18006A436
:100B000061016FF08FDAB24745B78A0555BF12050C
:100B10009305400613052503EFF0CFDB3D89E9BFC0
:100B200091C55E250967D98F5EA582805A25F97720
:100B3000FD17F98FD5BF93F5F51F4EA182800A21CD
:100B40006D8D3335A0008280EFF28FD5B70700207E
:100B500003A50700B7157A0093850520EFF08FD71E
:100B60001375F50FB70700202387A70293175500C9
:100B7000898F8A073E950E05B70700202396A702A6
:100B80006FF0AFD2EFF2CFD137F400E05C40AA852E
:100B9000F99B5CC0B707002003D5C702EFF08FD1E7
:100BA00008C8232404001C4093E717001CC0B7F7B3
:100BB00000E0D843058B75DF9843799B98C36FF0AD
:100BC000CFCEEFF2EFCD2A841165111185451305C3
:100BD00005029935930700027C80371501408D4747
:100BE0003EC28A85E147130505403EC4093622C648
:100BF00037440140B70708006C00130504803ECA63
:100C000002C8231C0100B935854513050480093F3E
:100C100071016FF08FC9EFF2AFC87111AE8401445A
:100C2000635DC402B7470140138707803A85930587
:100C3000000432C02937B7470140138707800246B6
:100C400075D5338784008305070013850780050465
:100C5000C205C181CD350246E1B7328511016FF081
:100C6000CFC4411106C62EC00DCD1841AA8705C3B9
:100C700058417D5511CB8546631BD700984723000B
:100C8000070023A207000545B24041018280984732
:100C9000824614A39847050798C7D8437D17D8C341
:100CA000DDB705468A85853FF9BF011122CC2EC2EA
:100CB00006CE26CA2A8481479305000263450602B0
:100CC0009245BE95838505008DE563D8C70263D440
:100CD000E702198E1305000293F526002AC089C584
:100CE00001E7930500032EC0858A814495EAB2840A
:100CF0000DA08507F1B71D8EF1BF0146E1BF82450A
:100D000022853AC832C63EC4A93FA247324642476E
:100D1000FD14E34690FEB284635306008144058EC1
:100D200063C7E702A68792463387974036978305C5
:100D3000070095EDB28463449004635306000146B6
:100D4000F2406244D2443305F600056182801D8F73
:100D5000BA8793050003228532C83EC63AC41137CC
:100D6000B24722474246FD17EDF7BA9465BF228588
:100D700032C63EC4FD35A247324685076DB782456F
:100D8000228532C43EC2F13DFD142246924765B72A
:100D9000397106DE22DC26DA3EC232833A8689EDDC
:100DA00092469307000301476C08FC86FD3DF25014
:100DB0006254D25421618280AA843684AE8791CA5B
:100DC000294701446317E30063D50500B307B0402A
:100DD00005448646A309010213073103938666FC86
:100DE00036C49A853E8532CA3AC81AC63EC0EFF06C
:100DF0002FB1A546824732434247524663D4A600EC
:100E0000A2463695130505039306F7FFA30FA7FE29
:100E10009A853E8532CC3ACA1AC83EC636C0EFF033
:100E20006FABB24742435247624663F9670401CC55
:100E300029CA9247898BB1C79305D002268532C44F
:100E40000D3522467D169247918B95C30647930731
:100E5000100632C4930500032685631EF702113580
:100E6000930580072685F53B224609047916164727
:100E7000924682452685153D229515BFAA870247D1
:100E80008DB782469307D0020144A38FF6FE9307E5
:100E9000E7FF3EC04DBFF13393058005E1B7014543
:100EA000828001458280130181FD22D026CE06D2A8
:100EB0002AC4AE82328402C681448385020089ED51
:100EC000A24781C781453E85693B925002542685E1
:100ED000F244130181028280930750026388F50077
:100EE000224516C88504B53BC24239A88387120043
:100EF00013871200639CB7002245930550023AC83D
:100F00008D3342478504BA82850245BFD5DB9306FF
:100F1000B0026389D70463C8F60093063002638683
:100F2000D704814705A09306D002638AD7009306B1
:100F30000003E398D7FE13872200894721A0138777
:100F400022008547830607001306B0026383C604A8
:100F50006341D60213063002638BC602BA82014592
:100F6000A54681A0138722006DBF138722009147F9
:100F7000D1BF1306D0026389C60013060003E39FA6
:100F8000C6FC93E7270031A005078547C1BF93E75B
:100F900047000507E1B713162500329506053A9577
:100FA000850203860200130706FD9375F70FE3F42D
:100FB000B6FE1307E0029946631EE60085028146ED
:100FC000A54503860200130606FD1377F60F63F5A9
:100FD000E50236C6038702001306A006630DC70AA2
:100FE0006343E6021306C0046307C70A13068006BC
:100FF000630CC70881452DA813972600BA9686066C
:10100000B29685027DBF130640076306C708130624
:10101000A0076302C7081306C0068145631AC7000C
:10102000038612008D456314E60085029145850212
:1010300003860200930300061307100663C4C3006F
:10104000130710049303700663C4C306930350068A
:10105000635376189303700463C1C304930550046B
:10106000635BB61613073004E310E6EA18409303F7
:10107000440016CA230CE1001EC8A30C010001475E
:10108000BE862A862C0849A8038612008145E311F2
:10109000E6FA890271BF8502B1BF93063006E30705
:1010A000D6FC63CEC606930680056303D602A9BDAF
:1010B000930630076304D60463CBC6029306F0069A
:1010C0006302D60E9306000793E74700E31ED6E2BD
:1010D0009146639FD50A930384000C40504016CA82
:1010E0003AC23EC01EC8AA870147C146B9A09306AE
:1010F00050076308D6069306800745BF1840B71609
:101100000000930344009385063011C3BA8532472B
:1011100016CA1EC8BE862A862245413E0DA09146AB
:101120006394D502930384000C40504016CA3AC21F
:101130003EC01EC8AA870547A94622458D33C24333
:10114000AA941E84D242C9B3B2460C4016C836C215
:101150003AC011042A878546294622451539AA94A2
:1011600061B39146639DD500930384000C405040C9
:1011700016CA3AC23EC01EC8AA87014775BFB2460A
:101180000C4016C836C23AC011042A878146E9B716
:10119000B24616C80C40414636C23AC011042A87EE
:1011A000814665BF9146639ED500930384000C4041
:1011B000504016CA3AC23EC01EC8AA870147A1467F
:1011C000ADBFB2460C4016C836C23AC011042A87D9
:1011D0008146214659B70C401306840040403AC26C
:1011E0002A87224532C83EC02286B687A94616CA3B
:1011F0004D39AA944244B9B71301C1FD2EC832CA71
:10120000AA851008014506C636CC3ACE3ED032C07B
:101210005939B240130141028280411122C426C2D1
:1012200006C61C21AA840144DC8183073100050421
:1012300099EFA9479305310005460145DC81EFF0A0
:101240009F9D2285B24022449244410182800546FE
:10125000930531000145EFF01F9CB38784009C2368
:10126000DC81E1B708010203050000004F4B0000DC
:101270004552524F5200000053797374656D436CB0
:101280006B3A25640D0A0000537461727420577222
:101290006974652032344378782E2E2E2E0D00008E
:1012A0005374617475732077726974653A2025737D
:1012B0000D0A00005374617274205265616420321B
:1012C000344378782E2E2E2E0D0000005374617456
:1012D000757320726561643A2025730D0A00000061
:1012E000444154412052454144202D3E2025642054
:1012F0002564202564202564202564200D0A000033
:08130000286E756C6C290000D9
:10130800006CDC020204060804080C1008101820FF
:1013180010203040204060800102030405060708C1
:08132800010203040506070899
:00000001FF
