:100000006F00C04000000000DA010000DE010000C7
:1000100000000000000000000000000000000000E0
:1000200000000000000000000000000000000000D0
:10003000DA03000000000000DC0300000000000004
:10004000DE030000E0030000E2030000E403000020
:10005000E6030000E8030000EA030000EC030000F0
:10006000EE030000F0030000F2030000F4030000C0
:10007000F6030000F8030000FA030000FC03000090
:10008000FE0300000004000002040000040400005D
:1000900006040000080400000A040000000000003C
:1000A000511126C022C206C4828282441244A24058
:1000B00031018280634E050263C305042E86AA8542
:1000C0007D5515C285466378B6006356C0000606A6
:1000D0008606E36CB6FE014563E4C500918D558D3F
:1000E00085820582F5FA82808682C93F2E858282CA
:1000F0003305A04063D70500B305B040C1B7B305D1
:10010000B0408682653F3305A0408282868263C705
:100110000500634905005D372E858282B305B04036
:10012000E35B05FE3305A040513F3305B0408282BA
:1001300000003D432A876373C3029377F700BDEF46
:10014000ADE5937606FF3D8ABA960CC34CC30CC747
:100150004CC74107E36BD7FE11E28280B306C34070
:100160008A069702000096966780A6002307B700CC
:10017000A306B7002306B700A305B7002305B70001
:10018000A304B7002304B700A303B7002303B700F9
:10019000A302B7002302B700A301B7002301B700F1
:1001A000A300B7002300B700828093F5F50F939664
:1001B0008500D58D93960501D58D61B7939627005F
:1001C0009702000096968682E78086FA9680C1178D
:1001D0001D8F3E96E374C3F8A5B77300203001A0CD
:1001E000EFF21FECAA840565130141FD2E8413056F
:1001F0000582854532C002C802CA02CC02CE02D0B6
:1002000002D202D402C202C423160100DD299147A2
:10021000FC8037150140E1473ECC0C088D471305A3
:1002200005403ECAA9266082373401404C001305C0
:1002300004C0648423150100231301002306010078
:10024000C5210246C167938707066C08130504C0E1
:100250003ECE2311C10223120102112B130504C04B
:100260008145E92B8545130504C0652B1301C102A7
:100270002DBDEFF2FFE21301C1FC2A842EC2B2842D
:1002800081451306C002280036C065358545054501
:1002900091292285F52A924782462C003EC4C14707
:1002A0003EC8930700083ECE930700103ED0930748
:1002B00000403ED2930700023ED422858D6736CAA5
:1002C0003ED626C602CC02D8A92C854522857124AB
:1002D00013014103D9BBEFF2BFDC0945A5268525F3
:1002E000716513050520512DB707002083A58700F0
:1002F00037150000130545FDEF00904B3704002033
:1003000003560400B1659385F5B713053006C93D62
:100310001306040037050240373401408D4693052B
:1003200044C313058505B137054693050010130531
:1003300004C0DD218545130504C0792985451305D1
:1003400004C07D2101A0B71702409843B706FFFC07
:100350001367170098C3D843758FD8C39843B7065F
:10036000F7FEFD16758F98C39843B706FCFFFD1680
:10037000758F98C3D44341777D17F98ED4C3B706E0
:100380009F0094C7B72602409042719A90C2904253
:100390001366160090C2D443D4C3D443758FD8C318
:1003A000D843B7060001D8C39843558F98C39843E4
:1003B00093166700E3DD06FED843B7160240719B33
:1003C000D8C3D84313672700D8C32147DC42B18B79
:1003D000E39EE7FE828001A001A001A001A001A090
:1003E00001A001A001A001A001A001A001A001A005
:1003F00001A001A001A001A001A001A001A001A0F5
:1004000001A001A001A001A001A001A0970100206E
:1004100093814142138101FD17150000130545BD6D
:1004200097050020938505BE17060020130686C099
:1004300063FAC5008322050023A05500110591052C
:10044000E3EAC5FE170500201305C5BE938581802C
:100450006377B500232005001105E36DB5FE930217
:100460000008739002308D42739042809702000022
:10047000938242B993E2320073905230EFF0BFECB6
:1004800097020000938262E573901234730020306B
:100490001C4141677917F98F1CC1232005002322D5
:1004A000050023240500B707024023260500138713
:1004B00087006317E500D8431367F700D8C382802D
:1004C0001387C7016316E500D8431367070FFDB70D
:1004D000138707036318E500D8438566938606F003
:1004E000558FE9BF138747046315E500D843BD6600
:1004F000C5BF138787056316E500D843B7060F000D
:10050000C5B71387C7066316E500D843B706F000E2
:10051000C1BF13870708E314E5FAD843B706000FF5
:10052000C1B71841E177BD0794517D8F9C45D58FA8
:100530009449D58FD449D58F944DD58FD44DD58F2F
:10054000D451D58F9455D58FD98F1CC1DC455CC152
:100550009C411CC5DC415CC582801C4189C593E778
:1005600017001CC1828041677917F98FDDBF9C4558
:10057000611122C226C013F7070113F3F70001C768
:10058000D8413363E30092211377F60F29C7832301
:100590000500014713048002930480048546B39547
:1005A000E600B376B6006392D50293122700BD46EB
:1005B000B396560093C6F6FFB3F37600B31253001A
:1005C000B3E37200639787064CC90507A146E3179A
:1005D000D7FC232075001307F00F6378C70483232B
:1005E0004500A14613048002930480040547B3121A
:1005F000D700337756006394E20213972600011761
:10060000BD45B395E50093C5F5FFB3F3750033170A
:10061000E300B363770063928702232A55008506BF
:100620004147E395E6FC23227500124482442101F0
:100630008280E39C97F80CC949BFE39297FE232878
:100640005500F1BFB707002023A8A7028280EFF270
:100650003FA5371702405C4391462A84B18B6385DE
:10066000D700A146638AD706B7376E019387076024
:100670001CC0B7160240DC42918313F7F700B7079E
:10068000002093870702BA978C23DC42184093F529
:10069000F50F93F707083355B70099E33A85393CCE
:1006A00048C008C448C4B7170240DC43AD83FD8B83
:1006B00013D737008A07F18BD98F93F637010D478F
:1006C0006373D700D117370700201307C700BA9705
:1006D0008C23ED3208C8D1BA5C43B777DC0293872C
:1006E00007C079B799C5371702405C4B5D8D48CB81
:1006F0008280B7170240D84B1345F5FF798DC8CBE0
:10070000828099C5371702401C4F5D8D08CF8280CB
:10071000B7170240984F1345F5FF798D88CF828037
:100720001E2137370140130707C0C207C183630684
:10073000E500370700406316E500BA2193F7F7F8A4
:10074000D98FFA2193F7F7CFC207C183D98F1EA1A2
:10075000DE215EB59E211EB5B7370140938707C0E5
:100760006314F5009C251EB985475EA982801E3161
:10077000922103D32500C207C183F99BC207C1831D
:100780001EB11E3156211A2DC207C1834207418373
:100790001377C7F8518F9225F59BC2063366660022
:1007A000D18F37360140130606C0C1826310C502DF
:1007B000B225DD9B03D3E500D18FD221ED9B93F6CB
:1007C000F6CFD18FD22533666600D18E56A11AADF1
:1007D000FA2158D91EB182801E2189C593E71700DE
:1007E0001EA18280C207C183F99BC207C183CDBF0E
:1007F0008357450491C52167D98F2312F504828060
:10080000C607C583DDBF5E2501C6DD8D4EA582808E
:1008100093C5F5FFFD8DDDBFEFF29F88ED376FF0DB
:10082000DF881E2189C593E707081EA18280C207C1
:10083000C18393F7F7F7C207C183C5BF1E2DC20757
:10084000C183DD9BDD8D0EAD8280EFF27F851629A1
:10085000F577FD17F58FF621DA252111D58F1EA921
:100860005625FD779387379FF58FD6212A842EC092
:10087000D58F9625D58FB625D58F5EA55E29C20763
:10088000C18393F7F7CF5D8F5AA94800C933B747A3
:1008900001409387078082456312F406C2475A24B9
:1008A000139517003E9542070E0541873E958C41F2
:1008B000635807048605EFF07F80930540062AC041
:1008C000EFF0CFFF824793144500930540063E8525
:1008D000EFF09F815E24C207C18763D507020E0532
:1008E0009305400613052503EFF04FFD1D89C98CC4
:1008F000C204C18006A461016FF02FFBB24745B767
:100900008A0555BF12059305400613052503EFF030
:10091000EFFA3D89E9BF91C55E250967D98F5EA5CC
:1009200082805A25F977FD17F98FD5BF93F5F51F0A
:100930004EA182800A216D8D3335A0008280EFF2B6
:100940002FF6B707002003A58700B7157A00938517
:100950000520EFF0AFF61375F50FB7070020238BD6
:10096000A70293175500898F8A073E950E05B70792
:100970000020239AA7026FF04FF3EFF26FF22A8460
:1009800011651111854513050502A53B930700026A
:100990007C80371501408D473EC28A85E1471305AB
:1009A00005403EC4E93622C637440140B707080077
:1009B0006C00130504803ECA02C8231C0100713577
:1009C000854513050480813F71016FF00FEEEFF252
:1009D0002FED7111AE840144635DC402B74701403D
:1009E000138707803A859305000432C0A137B747C3
:1009F000014013870780024675D53387840083053D
:100A00000700138507800504C205C181053702462A
:100A1000E1B7328511016FF04FE9411106C62EC0D2
:100A20000DCD1841AA8705C358417D5511CB854688
:100A3000631BD70098472300070023A20700054542
:100A4000B240410182809847824614A39847050727
:100A500098C7D8437D17D8C3DDB705468A85853F3B
:100A6000F9BF011122CC2EC206CE26CA2A848147A4
:100A700093050002634506029245BE9583850500F5
:100A80008DE563D8C70263D4E702198E130500020F
:100A900093F526002AC089C501E7930500032EC0FF
:100AA000858A814495EAB2840DA08507F1B71D8E31
:100AB000F1BF0146E1BF824522853AC832C63EC435
:100AC000A93FA24732464247FD14E34690FEB28456
:100AD000635306008144058E63C7E702A6879246EA
:100AE0003387974036978305070095EDB2846344BA
:100AF0009004635306000146F2406244D244330539
:100B0000F600056182801D8FBA8793050003228558
:100B100032C83EC63AC41137B24722474246FD1793
:100B2000EDF7BA9465BF228532C63EC4FD35A247B3
:100B3000324685076DB78245228532C43EC2F13DFB
:100B4000FD142246924765B7397106DE22DC26DAAB
:100B50003EC232833A8689ED9246930700030147ED
:100B60006C08FC86FD3DF2506254D25421618280B3
:100B7000AA843684AE8791CA294701446317E300EB
:100B800063D50500B307B04005448646A3090102BA
:100B900013073103938666FC36C49A853E8532CAB4
:100BA0003AC81AC63EC0EFF02FD4A546824732435A
:100BB0004247524663D4A600A24636951305050364
:100BC0009306F7FFA30FA7FE9A853E8532CC3ACA5B
:100BD0001AC83EC636C0EFF06FCEB2474243524706
:100BE000624663F9670401CC29CA9247898BB1C771
:100BF0009305D002268532C40D3522467D169247D4
:100C0000918B95C306479307100632C493050003E2
:100C10002685631EF7021135930580072685F53B6F
:100C20002246090479161647924682452685153DC7
:100C3000229515BFAA8702478DB782469307D00237
:100C40000144A38FF6FE9307E7FF3EC04DBFF1338B
:100C500093058005E1B7014582800145828013013B
:100C600081FD22D026CE06D22AC4AE82328402C6AC
:100C700081448385020089EDA24781C781453E8575
:100C8000693B925002542685F2441301810282800E
:100C9000930750026388F500224516C88504B53BCA
:100CA000C24239A88387120013871200639CB700E1
:100CB0002245930550023AC88D3342478504BA82D3
:100CC000850245BFD5DB9306B0026389D70463C8AC
:100CD000F600930630026386D704814705A0930689
:100CE000D002638AD70093060003E398D7FE1387E8
:100CF0002200894721A01387220085478306070029
:100D00001306B0026383C6046341D60213063002A1
:100D1000638BC602BA820145A54681A013872200D3
:100D20006DBF138722009147D1BF1306D00263899C
:100D3000C60013060003E39FC6FC93E7270031A01B
:100D400005078547C1BF93E747000507E1B71316BD
:100D50002500329506053A958502038602001307A1
:100D600006FD9375F70FE3F4B6FE1307E00299460C
:100D7000631EE60085028146A54503860200130630
:100D800006FD1377F60F63F5E50236C6038702000A
:100D90001306A006630DC70A6343E6021306C004E8
:100DA0006307C70A13068006630CC70881452DA890
:100DB00013972600BA968606B29685027DBF130663
:100DC00040076306C7081306A0076302C708130697
:100DD000C0068145631AC700038612008D4563145F
:100DE000E600850291458502038602009303000612
:100DF0001307100663C4C30013071004930370069F
:100E000063C4C306930350066353761893037004B8
:100E100063C1C30493055004635BB6161307300423
:100E2000E310E6EA18409303440016CA230CE100DD
:100E30001EC8A30C01000147BE862A862C0849A8BB
:100E4000038612008145E311E6FA890271BF85022B
:100E5000B1BF93063006E307D6FC63CEC606930601
:100E600080056303D602A9BD930630076304D60448
:100E700063CBC6029306F0066302D60E9306000704
:100E800093E74700E31ED6E29146639FD50A93039A
:100E900084000C40504016CA3AC23EC01EC8AA8701
:100EA0000147C146B9A0930650076308D6069306CA
:100EB000800745BF1840B716000093034400938590
:100EC00046FE11C3BA85324716CA1EC8BE862A8698
:100ED0002245413E0DA091466394D50293038400C0
:100EE0000C40504016CA3AC23EC01EC8AA870547E9
:100EF000A94622458D33C243AA941E84D242C9B367
:100F0000B2460C4016C836C23AC011042A8785463C
:100F1000294622451539AA9461B39146639DD500AF
:100F2000930384000C40504016CA3AC23EC01EC80B
:100F3000AA87014775BFB2460C4016C836C23AC0F0
:100F400011042A878146E9B7B24616C80C404146CB
:100F500036C23AC011042A87814665BF9146639E16
:100F6000D500930384000C40504016CA3AC23EC0DC
:100F70001EC8AA870147A146ADBFB2460C4016C89D
:100F800036C23AC011042A878146214659B70C401F
:100F90001306840040403AC22A87224532C83EC028
:100FA0002286B687A94616CA4D39AA944244B9B7D3
:100FB0001301C1FD2EC832CAAA851008014506C614
:100FC00036CC3ACE3ED032C05939B240130141023C
:100FD0008280000053797374656D436C6B3A2564AD
:0C0FE0000D0A0000286E756C6C290000E2
:100FEC000A00320050000000006CDC02020406080B
:100FFC0004080C100810182010203040204060808D
:10100C00010203040506070801020304050607088C
:00000001FF
